{
  "contractName": "Dex",
  "abi": [
    {
      "anonymous": false,
      "inputs": [
        {
          "indexed": true,
          "internalType": "address",
          "name": "previousOwner",
          "type": "address"
        },
        {
          "indexed": true,
          "internalType": "address",
          "name": "newOwner",
          "type": "address"
        }
      ],
      "name": "OwnershipTransferred",
      "type": "event"
    },
    {
      "inputs": [
        {
          "internalType": "bytes32",
          "name": "ticker",
          "type": "bytes32"
        },
        {
          "internalType": "address",
          "name": "tokenAddress",
          "type": "address"
        }
      ],
      "name": "addToken",
      "outputs": [],
      "stateMutability": "payable",
      "type": "function",
      "payable": true
    },
    {
      "inputs": [
        {
          "internalType": "address",
          "name": "",
          "type": "address"
        },
        {
          "internalType": "bytes32",
          "name": "",
          "type": "bytes32"
        }
      ],
      "name": "balances",
      "outputs": [
        {
          "internalType": "uint256",
          "name": "",
          "type": "uint256"
        }
      ],
      "stateMutability": "view",
      "type": "function",
      "constant": true
    },
    {
      "inputs": [
        {
          "internalType": "uint256",
          "name": "amount",
          "type": "uint256"
        },
        {
          "internalType": "bytes32",
          "name": "ticker",
          "type": "bytes32"
        }
      ],
      "name": "deposit",
      "outputs": [],
      "stateMutability": "nonpayable",
      "type": "function"
    },
    {
      "inputs": [],
      "name": "nextOrderId",
      "outputs": [
        {
          "internalType": "uint256",
          "name": "",
          "type": "uint256"
        }
      ],
      "stateMutability": "view",
      "type": "function",
      "constant": true
    },
    {
      "inputs": [
        {
          "internalType": "bytes32",
          "name": "",
          "type": "bytes32"
        },
        {
          "internalType": "uint256",
          "name": "",
          "type": "uint256"
        },
        {
          "internalType": "uint256",
          "name": "",
          "type": "uint256"
        }
      ],
      "name": "orderBook",
      "outputs": [
        {
          "internalType": "uint256",
          "name": "id",
          "type": "uint256"
        },
        {
          "internalType": "address",
          "name": "trader",
          "type": "address"
        },
        {
          "internalType": "enum Dex.Side",
          "name": "side",
          "type": "uint8"
        },
        {
          "internalType": "bytes32",
          "name": "ticker",
          "type": "bytes32"
        },
        {
          "internalType": "uint256",
          "name": "amount",
          "type": "uint256"
        },
        {
          "internalType": "uint256",
          "name": "price",
          "type": "uint256"
        },
        {
          "internalType": "uint256",
          "name": "filled",
          "type": "uint256"
        }
      ],
      "stateMutability": "view",
      "type": "function",
      "constant": true
    },
    {
      "inputs": [],
      "name": "owner",
      "outputs": [
        {
          "internalType": "address",
          "name": "",
          "type": "address"
        }
      ],
      "stateMutability": "view",
      "type": "function",
      "constant": true
    },
    {
      "inputs": [],
      "name": "renounceOwnership",
      "outputs": [],
      "stateMutability": "nonpayable",
      "type": "function"
    },
    {
      "inputs": [
        {
          "internalType": "uint256",
          "name": "",
          "type": "uint256"
        }
      ],
      "name": "tokenList",
      "outputs": [
        {
          "internalType": "bytes32",
          "name": "",
          "type": "bytes32"
        }
      ],
      "stateMutability": "view",
      "type": "function",
      "constant": true
    },
    {
      "inputs": [
        {
          "internalType": "bytes32",
          "name": "",
          "type": "bytes32"
        }
      ],
      "name": "tokenMapping",
      "outputs": [
        {
          "internalType": "bytes32",
          "name": "ticker",
          "type": "bytes32"
        },
        {
          "internalType": "address",
          "name": "tokenAddress",
          "type": "address"
        }
      ],
      "stateMutability": "view",
      "type": "function",
      "constant": true
    },
    {
      "inputs": [
        {
          "internalType": "address",
          "name": "newOwner",
          "type": "address"
        }
      ],
      "name": "transferOwnership",
      "outputs": [],
      "stateMutability": "nonpayable",
      "type": "function"
    },
    {
      "inputs": [
        {
          "internalType": "uint256",
          "name": "amount",
          "type": "uint256"
        },
        {
          "internalType": "bytes32",
          "name": "ticker",
          "type": "bytes32"
        }
      ],
      "name": "withdraw",
      "outputs": [],
      "stateMutability": "nonpayable",
      "type": "function"
    },
    {
      "inputs": [
        {
          "internalType": "bytes32",
          "name": "ticker",
          "type": "bytes32"
        },
        {
          "internalType": "enum Dex.Side",
          "name": "side",
          "type": "uint8"
        }
      ],
      "name": "getOrderBook",
      "outputs": [
        {
          "components": [
            {
              "internalType": "uint256",
              "name": "id",
              "type": "uint256"
            },
            {
              "internalType": "address",
              "name": "trader",
              "type": "address"
            },
            {
              "internalType": "enum Dex.Side",
              "name": "side",
              "type": "uint8"
            },
            {
              "internalType": "bytes32",
              "name": "ticker",
              "type": "bytes32"
            },
            {
              "internalType": "uint256",
              "name": "amount",
              "type": "uint256"
            },
            {
              "internalType": "uint256",
              "name": "price",
              "type": "uint256"
            },
            {
              "internalType": "uint256",
              "name": "filled",
              "type": "uint256"
            }
          ],
          "internalType": "struct Dex.Order[]",
          "name": "",
          "type": "tuple[]"
        }
      ],
      "stateMutability": "view",
      "type": "function",
      "constant": true
    },
    {
      "inputs": [],
      "name": "depositEth",
      "outputs": [],
      "stateMutability": "payable",
      "type": "function",
      "payable": true
    },
    {
      "inputs": [
        {
          "internalType": "uint256",
          "name": "amount",
          "type": "uint256"
        }
      ],
      "name": "withdrawEth",
      "outputs": [],
      "stateMutability": "nonpayable",
      "type": "function"
    },
    {
      "inputs": [
        {
          "internalType": "enum Dex.Side",
          "name": "side",
          "type": "uint8"
        },
        {
          "internalType": "bytes32",
          "name": "ticker",
          "type": "bytes32"
        },
        {
          "internalType": "uint256",
          "name": "amount",
          "type": "uint256"
        },
        {
          "internalType": "uint256",
          "name": "price",
          "type": "uint256"
        }
      ],
      "name": "createLimitOrder",
      "outputs": [],
      "stateMutability": "nonpayable",
      "type": "function"
    },
    {
      "inputs": [
        {
          "internalType": "enum Dex.Side",
          "name": "side",
          "type": "uint8"
        },
        {
          "internalType": "bytes32",
          "name": "ticker",
          "type": "bytes32"
        },
        {
          "internalType": "uint256",
          "name": "amount",
          "type": "uint256"
        }
      ],
      "name": "createMarketOrder",
      "outputs": [],
      "stateMutability": "nonpayable",
      "type": "function"
    },
    {
      "inputs": [],
      "name": "getTokenListLength",
      "outputs": [
        {
          "internalType": "uint256",
          "name": "",
          "type": "uint256"
        }
      ],
      "stateMutability": "nonpayable",
      "type": "function"
    }
  ],
  "bytecode": "0x608060405260006004553480156200001657600080fd5b50600062000029620000cd60201b60201c565b9050806000806101000a81548173ffffffffffffffffffffffffffffffffffffffff021916908373ffffffffffffffffffffffffffffffffffffffff1602179055508073ffffffffffffffffffffffffffffffffffffffff16600073ffffffffffffffffffffffffffffffffffffffff167f8be0079c531659141344cd1fd0a4f28419497f9722a3daafe3b4186f6b6457e060405160405180910390a350620000d5565b600033905090565b61349c80620000e56000396000f3fe6080604052600436106100fe5760003560e01c80638da5cb5b11610095578063a8d2021a11610064578063a8d2021a1461030e578063ba58ea6814610337578063c311d04914610374578063c9630cb01461039d578063f2fde38b146103c6576100fe565b80638da5cb5b146102615780639776aacf1461028c57806399ec2f1c146102a85780639ead7222146102d1576100fe565b80635719dd22116100d15780635719dd22146101b8578063667cb4ba146101e35780636f3b62f914610221578063715018a61461024a576100fe565b80630bb431b6146101035780631f14df69146101465780632a58b33014610183578063439370b1146101ae575b600080fd5b34801561010f57600080fd5b5061012a60048036038101906101259190612e18565b6103ef565b60405161013d9796959493929190613285565b60405180910390f35b34801561015257600080fd5b5061016d60048036038101906101689190612d3b565b610488565b60405161017a919061326a565b60405180910390f35b34801561018f57600080fd5b506101986104ad565b6040516101a5919061326a565b60405180910390f35b6101b66104b3565b005b3480156101c457600080fd5b506101cd6105ac565b6040516101da919061326a565b60405180910390f35b3480156101ef57600080fd5b5061020a60048036038101906102059190612d77565b6105b9565b604051610218929190613201565b60405180910390f35b34801561022d57600080fd5b5061024860048036038101906102439190612eb6565b6105fd565b005b34801561025657600080fd5b5061025f610f1c565b005b34801561026d57600080fd5b50610276611089565b60405161028391906131a9565b60405180910390f35b6102a660048036038101906102a19190612da0565b6110b2565b005b3480156102b457600080fd5b506102cf60048036038101906102ca9190612e67565b611220565b005b3480156102dd57600080fd5b506102f860048036038101906102f39190612f19565b611fdf565b60405161030591906131e6565b60405180910390f35b34801561031a57600080fd5b5061033560048036038101906103309190612f42565b612003565b005b34801561034357600080fd5b5061035e60048036038101906103599190612ddc565b612342565b60405161036b91906131c4565b60405180910390f35b34801561038057600080fd5b5061039b60048036038101906103969190612f19565b612486565b005b3480156103a957600080fd5b506103c460048036038101906103bf9190612f42565b61269c565b005b3480156103d257600080fd5b506103ed60048036038101906103e89190612d12565b612933565b005b6005602052826000526040600020602052816000526040600020818154811061041757600080fd5b906000526020600020906006020160009250925050508060000154908060010160009054906101000a900473ffffffffffffffffffffffffffffffffffffffff16908060010160149054906101000a900460ff16908060020154908060030154908060040154908060050154905087565b6003602052816000526040600020602052806000526040600020600091509150505481565b60045481565b61053634600360003373ffffffffffffffffffffffffffffffffffffffff1673ffffffffffffffffffffffffffffffffffffffff16815260200190815260200160002060007f4554480000000000000000000000000000000000000000000000000000000000815260200190815260200160002054612b2590919063ffffffff16565b600360003373ffffffffffffffffffffffffffffffffffffffff1673ffffffffffffffffffffffffffffffffffffffff16815260200190815260200160002060007f4554480000000000000000000000000000000000000000000000000000000000815260200190815260200160002081905550565b6000600180549050905090565b60026020528060005260406000206000915090508060000154908060010160009054906101000a900473ffffffffffffffffffffffffffffffffffffffff16905082565b6000600181111561060a57fe5b84600181111561061657fe5b14156106b05761062f8183612bad90919063ffffffff16565b600360003373ffffffffffffffffffffffffffffffffffffffff1673ffffffffffffffffffffffffffffffffffffffff16815260200190815260200160002060007f455448000000000000000000000000000000000000000000000000000000000081526020019081526020016000205410156106ab57600080fd5b61072d565b6001808111156106bc57fe5b8460018111156106c857fe5b141561072c5781600360003373ffffffffffffffffffffffffffffffffffffffff1673ffffffffffffffffffffffffffffffffffffffff168152602001908152602001600020600085815260200190815260200160002054101561072b57600080fd5b5b5b600060056000858152602001908152602001600020600086600181111561075057fe5b81526020019081526020016000209050806040518060e0016040528060045481526020013373ffffffffffffffffffffffffffffffffffffffff16815260200187600181111561079c57fe5b8152602001868152602001858152602001848152602001600081525090806001815401808255809150506001900390600052602060002090600602016000909190919091506000820151816000015560208201518160010160006101000a81548173ffffffffffffffffffffffffffffffffffffffff021916908373ffffffffffffffffffffffffffffffffffffffff16021790555060408201518160010160146101000a81548160ff0219169083600181111561085657fe5b0217905550606082015181600201556080820151816003015560a0820151816004015560c0820151816005015550506000808280549050116108995760006108a2565b60018280549050035b9050600060018111156108b157fe5b8660018111156108bd57fe5b1415610bd5575b6000811115610bd0578181815481106108d957fe5b9060005260206000209060060201600401548260018303815481106108fa57fe5b906000526020600020906006020160040154111561091757610bd0565b600082600183038154811061092857fe5b90600052602060002090600602016040518060e0016040529081600082015481526020016001820160009054906101000a900473ffffffffffffffffffffffffffffffffffffffff1673ffffffffffffffffffffffffffffffffffffffff1673ffffffffffffffffffffffffffffffffffffffff1681526020016001820160149054906101000a900460ff1660018111156109bf57fe5b60018111156109ca57fe5b81526020016002820154815260200160038201548152602001600482015481526020016005820154815250509050828281548110610a0457fe5b9060005260206000209060060201836001840381548110610a2157fe5b9060005260206000209060060201600082015481600001556001820160009054906101000a900473ffffffffffffffffffffffffffffffffffffffff168160010160006101000a81548173ffffffffffffffffffffffffffffffffffffffff021916908373ffffffffffffffffffffffffffffffffffffffff1602179055506001820160149054906101000a900460ff168160010160146101000a81548160ff02191690836001811115610ad157fe5b02179055506002820154816002015560038201548160030155600482015481600401556005820154816005015590505080838381548110610b0e57fe5b90600052602060002090600602016000820151816000015560208201518160010160006101000a81548173ffffffffffffffffffffffffffffffffffffffff021916908373ffffffffffffffffffffffffffffffffffffffff16021790555060408201518160010160146101000a81548160ff02191690836001811115610b9157fe5b0217905550606082015181600201556080820151816003015560a0820151816004015560c08201518160050155905050818060019003925050506108c4565b610f02565b600180811115610be157fe5b866001811115610bed57fe5b1415610f01575b6000811115610f0057818181548110610c0957fe5b906000526020600020906006020160040154826001830381548110610c2a57fe5b9060005260206000209060060201600401541015610c4757610f00565b6000826001830381548110610c5857fe5b90600052602060002090600602016040518060e0016040529081600082015481526020016001820160009054906101000a900473ffffffffffffffffffffffffffffffffffffffff1673ffffffffffffffffffffffffffffffffffffffff1673ffffffffffffffffffffffffffffffffffffffff1681526020016001820160149054906101000a900460ff166001811115610cef57fe5b6001811115610cfa57fe5b81526020016002820154815260200160038201548152602001600482015481526020016005820154815250509050828281548110610d3457fe5b9060005260206000209060060201836001840381548110610d5157fe5b9060005260206000209060060201600082015481600001556001820160009054906101000a900473ffffffffffffffffffffffffffffffffffffffff168160010160006101000a81548173ffffffffffffffffffffffffffffffffffffffff021916908373ffffffffffffffffffffffffffffffffffffffff1602179055506001820160149054906101000a900460ff168160010160146101000a81548160ff02191690836001811115610e0157fe5b02179055506002820154816002015560038201548160030155600482015481600401556005820154816005015590505080838381548110610e3e57fe5b90600052602060002090600602016000820151816000015560208201518160010160006101000a81548173ffffffffffffffffffffffffffffffffffffffff021916908373ffffffffffffffffffffffffffffffffffffffff16021790555060408201518160010160146101000a81548160ff02191690836001811115610ec157fe5b0217905550606082015181600201556080820151816003015560a0820151816004015560c0820151816005015590505081806001900392505050610bf4565b5b5b600460008154809291906001019190505550505050505050565b610f24612c33565b73ffffffffffffffffffffffffffffffffffffffff16610f42611089565b73ffffffffffffffffffffffffffffffffffffffff1614610fcb576040517f08c379a00000000000000000000000000000000000000000000000000000000081526004018080602001828103825260208152602001807f4f776e61626c653a2063616c6c6572206973206e6f7420746865206f776e657281525060200191505060405180910390fd5b600073ffffffffffffffffffffffffffffffffffffffff1660008054906101000a900473ffffffffffffffffffffffffffffffffffffffff1673ffffffffffffffffffffffffffffffffffffffff167f8be0079c531659141344cd1fd0a4f28419497f9722a3daafe3b4186f6b6457e060405160405180910390a360008060006101000a81548173ffffffffffffffffffffffffffffffffffffffff021916908373ffffffffffffffffffffffffffffffffffffffff160217905550565b60008060009054906101000a900473ffffffffffffffffffffffffffffffffffffffff16905090565b6110ba612c33565b73ffffffffffffffffffffffffffffffffffffffff166110d8611089565b73ffffffffffffffffffffffffffffffffffffffff1614611161576040517f08c379a00000000000000000000000000000000000000000000000000000000081526004018080602001828103825260208152602001807f4f776e61626c653a2063616c6c6572206973206e6f7420746865206f776e657281525060200191505060405180910390fd5b60405180604001604052808381526020018273ffffffffffffffffffffffffffffffffffffffff16815250600260008481526020019081526020016000206000820151816000015560208201518160010160006101000a81548173ffffffffffffffffffffffffffffffffffffffff021916908373ffffffffffffffffffffffffffffffffffffffff16021790555090505060018290806001815401808255809150506001900390600052602060002001600090919091909150555050565b60018081111561122c57fe5b83600181111561123857fe5b14156112d25780600360003373ffffffffffffffffffffffffffffffffffffffff1673ffffffffffffffffffffffffffffffffffffffff16815260200190815260200160002060008481526020019081526020016000205410156112d1576040517f08c379a00000000000000000000000000000000000000000000000000000000081526004016112c89061322a565b60405180910390fd5b5b60008060018111156112e057fe5b8460018111156112ec57fe5b14156112fb5760019050611300565b600090505b600060056000858152602001908152602001600020600083815260200190815260200160002090506000805b82805490508110801561133e57508482105b15611dcd5760006113588387612c3b90919063ffffffff16565b905060006113a985848154811061136b57fe5b90600052602060002090600602016005015486858154811061138957fe5b906000526020600020906006020160030154612c3b90919063ffffffff16565b90506000828211156113bd578290506113c1565b8190505b6113d48186612b2590919063ffffffff16565b9450611406818786815481106113e657fe5b906000526020600020906006020160050154612b2590919063ffffffff16565b86858154811061141257fe5b906000526020600020906006020160050181905550600061145987868154811061143857fe5b90600052602060002090600602016004015483612bad90919063ffffffff16565b90506000600181111561146857fe5b8b600181111561147457fe5b141561194c5780600360003373ffffffffffffffffffffffffffffffffffffffff1673ffffffffffffffffffffffffffffffffffffffff16815260200190815260200160002060007f455448000000000000000000000000000000000000000000000000000000000081526020019081526020016000205410156114f757600080fd5b61155a82600360003373ffffffffffffffffffffffffffffffffffffffff1673ffffffffffffffffffffffffffffffffffffffff16815260200190815260200160002060008d815260200190815260200160002054612b2590919063ffffffff16565b600360003373ffffffffffffffffffffffffffffffffffffffff1673ffffffffffffffffffffffffffffffffffffffff16815260200190815260200160002060008c81526020019081526020016000208190555061163181600360003373ffffffffffffffffffffffffffffffffffffffff1673ffffffffffffffffffffffffffffffffffffffff16815260200190815260200160002060007f4554480000000000000000000000000000000000000000000000000000000000815260200190815260200160002054612c3b90919063ffffffff16565b600360003373ffffffffffffffffffffffffffffffffffffffff1673ffffffffffffffffffffffffffffffffffffffff16815260200190815260200160002060007f455448000000000000000000000000000000000000000000000000000000000081526020019081526020016000208190555061174582600360008a89815481106116b957fe5b906000526020600020906006020160010160009054906101000a900473ffffffffffffffffffffffffffffffffffffffff1673ffffffffffffffffffffffffffffffffffffffff1673ffffffffffffffffffffffffffffffffffffffff16815260200190815260200160002060008d815260200190815260200160002054612c3b90919063ffffffff16565b6003600089888154811061175557fe5b906000526020600020906006020160010160009054906101000a900473ffffffffffffffffffffffffffffffffffffffff1673ffffffffffffffffffffffffffffffffffffffff1673ffffffffffffffffffffffffffffffffffffffff16815260200190815260200160002060008c81526020019081526020016000208190555061189681600360008a89815481106117ea57fe5b906000526020600020906006020160010160009054906101000a900473ffffffffffffffffffffffffffffffffffffffff1673ffffffffffffffffffffffffffffffffffffffff1673ffffffffffffffffffffffffffffffffffffffff16815260200190815260200160002060007f4554480000000000000000000000000000000000000000000000000000000000815260200190815260200160002054612b2590919063ffffffff16565b600360008988815481106118a657fe5b906000526020600020906006020160010160009054906101000a900473ffffffffffffffffffffffffffffffffffffffff1673ffffffffffffffffffffffffffffffffffffffff1673ffffffffffffffffffffffffffffffffffffffff16815260200190815260200160002060007f4554480000000000000000000000000000000000000000000000000000000000815260200190815260200160002081905550611dbc565b60018081111561195857fe5b8b600181111561196457fe5b1415611dbb576119cd82600360003373ffffffffffffffffffffffffffffffffffffffff1673ffffffffffffffffffffffffffffffffffffffff16815260200190815260200160002060008d815260200190815260200160002054612c3b90919063ffffffff16565b600360003373ffffffffffffffffffffffffffffffffffffffff1673ffffffffffffffffffffffffffffffffffffffff16815260200190815260200160002060008c815260200190815260200160002081905550611aa481600360003373ffffffffffffffffffffffffffffffffffffffff1673ffffffffffffffffffffffffffffffffffffffff16815260200190815260200160002060007f4554480000000000000000000000000000000000000000000000000000000000815260200190815260200160002054612b2590919063ffffffff16565b600360003373ffffffffffffffffffffffffffffffffffffffff1673ffffffffffffffffffffffffffffffffffffffff16815260200190815260200160002060007f4554480000000000000000000000000000000000000000000000000000000000815260200190815260200160002081905550611bb882600360008a8981548110611b2c57fe5b906000526020600020906006020160010160009054906101000a900473ffffffffffffffffffffffffffffffffffffffff1673ffffffffffffffffffffffffffffffffffffffff1673ffffffffffffffffffffffffffffffffffffffff16815260200190815260200160002060008d815260200190815260200160002054612b2590919063ffffffff16565b60036000898881548110611bc857fe5b906000526020600020906006020160010160009054906101000a900473ffffffffffffffffffffffffffffffffffffffff1673ffffffffffffffffffffffffffffffffffffffff1673ffffffffffffffffffffffffffffffffffffffff16815260200190815260200160002060008c815260200190815260200160002081905550611d0981600360008a8981548110611c5d57fe5b906000526020600020906006020160010160009054906101000a900473ffffffffffffffffffffffffffffffffffffffff1673ffffffffffffffffffffffffffffffffffffffff1673ffffffffffffffffffffffffffffffffffffffff16815260200190815260200160002060007f4554480000000000000000000000000000000000000000000000000000000000815260200190815260200160002054612c3b90919063ffffffff16565b60036000898881548110611d1957fe5b906000526020600020906006020160010160009054906101000a900473ffffffffffffffffffffffffffffffffffffffff1673ffffffffffffffffffffffffffffffffffffffff1673ffffffffffffffffffffffffffffffffffffffff16815260200190815260200160002060007f45544800000000000000000000000000000000000000000000000000000000008152602001908152602001600020819055505b5b50505050808060010191505061132c565b505b60008280549050118015611e1e575081600081548110611deb57fe5b90600052602060002090600602016003015482600081548110611e0a57fe5b906000526020600020906006020160050154145b15611fd75760005b6001838054905003811015611f4b57826001820181548110611e4457fe5b9060005260206000209060060201838281548110611e5e57fe5b9060005260206000209060060201600082015481600001556001820160009054906101000a900473ffffffffffffffffffffffffffffffffffffffff168160010160006101000a81548173ffffffffffffffffffffffffffffffffffffffff021916908373ffffffffffffffffffffffffffffffffffffffff1602179055506001820160149054906101000a900460ff168160010160146101000a81548160ff02191690836001811115611f0e57fe5b0217905550600282015481600201556003820154816003015560048201548160040155600582015481600501559050508080600101915050611e26565b5081805480611f5657fe5b60019003818190600052602060002090600602016000808201600090556001820160006101000a81549073ffffffffffffffffffffffffffffffffffffffff02191690556001820160146101000a81549060ff0219169055600282016000905560038201600090556004820160009055600582016000905550509055611dcf565b505050505050565b60018181548110611fef57600080fd5b906000526020600020016000915090505481565b80600073ffffffffffffffffffffffffffffffffffffffff166002600083815260200190815260200160002060010160009054906101000a900473ffffffffffffffffffffffffffffffffffffffff1673ffffffffffffffffffffffffffffffffffffffff1614156120dd576040517f08c379a00000000000000000000000000000000000000000000000000000000081526004018080602001828103825260158152602001807f546f6b656e20646f6573206e6f7420657869737421000000000000000000000081525060200191505060405180910390fd5b82600360003373ffffffffffffffffffffffffffffffffffffffff1673ffffffffffffffffffffffffffffffffffffffff16815260200190815260200160002060008481526020019081526020016000205410156121a3576040517f08c379a00000000000000000000000000000000000000000000000000000000081526004018080602001828103825260168152602001807f42616c616e63657320696e73756666696369656e74210000000000000000000081525060200191505060405180910390fd5b61220683600360003373ffffffffffffffffffffffffffffffffffffffff1673ffffffffffffffffffffffffffffffffffffffff168152602001908152602001600020600085815260200190815260200160002054612c3b90919063ffffffff16565b600360003373ffffffffffffffffffffffffffffffffffffffff1673ffffffffffffffffffffffffffffffffffffffff1681526020019081526020016000206000848152602001908152602001600020819055506002600083815260200190815260200160002060010160009054906101000a900473ffffffffffffffffffffffffffffffffffffffff1673ffffffffffffffffffffffffffffffffffffffff1663a9059cbb33856040518363ffffffff1660e01b8152600401808373ffffffffffffffffffffffffffffffffffffffff16815260200182815260200192505050602060405180830381600087803b15801561230157600080fd5b505af1158015612315573d6000803e3d6000fd5b505050506040513d602081101561232b57600080fd5b810190808051906020019092919050505050505050565b606060056000848152602001908152602001600020600083600181111561236557fe5b8152602001908152602001600020805480602002602001604051908101604052809291908181526020016000905b8282101561247a57838290600052602060002090600602016040518060e0016040529081600082015481526020016001820160009054906101000a900473ffffffffffffffffffffffffffffffffffffffff1673ffffffffffffffffffffffffffffffffffffffff1673ffffffffffffffffffffffffffffffffffffffff1681526020016001820160149054906101000a900460ff16600181111561243457fe5b600181111561243f57fe5b815260200160028201548152602001600382015481526020016004820154815260200160058201548152505081526020019060010190612393565b50505050905092915050565b80600360003373ffffffffffffffffffffffffffffffffffffffff1673ffffffffffffffffffffffffffffffffffffffff16815260200190815260200160002060007f45544800000000000000000000000000000000000000000000000000000000008152602001908152602001600020541015612539576040517f08c379a00000000000000000000000000000000000000000000000000000000081526004016125309061324a565b60405180910390fd5b6125bc81600360003373ffffffffffffffffffffffffffffffffffffffff1673ffffffffffffffffffffffffffffffffffffffff16815260200190815260200160002060007f4554480000000000000000000000000000000000000000000000000000000000815260200190815260200160002054612c3b90919063ffffffff16565b600360003373ffffffffffffffffffffffffffffffffffffffff1673ffffffffffffffffffffffffffffffffffffffff16815260200190815260200160002060007f45544800000000000000000000000000000000000000000000000000000000008152602001908152602001600020819055503373ffffffffffffffffffffffffffffffffffffffff168160405161265490613194565b60006040518083038185875af1925050503d8060008114612691576040519150601f19603f3d011682016040523d82523d6000602084013e612696565b606091505b50505050565b80600073ffffffffffffffffffffffffffffffffffffffff166002600083815260200190815260200160002060010160009054906101000a900473ffffffffffffffffffffffffffffffffffffffff1673ffffffffffffffffffffffffffffffffffffffff161415612776576040517f08c379a00000000000000000000000000000000000000000000000000000000081526004018080602001828103825260158152602001807f546f6b656e20646f6573206e6f7420657869737421000000000000000000000081525060200191505060405180910390fd5b6002600083815260200190815260200160002060010160009054906101000a900473ffffffffffffffffffffffffffffffffffffffff1673ffffffffffffffffffffffffffffffffffffffff166323b872dd3330866040518463ffffffff1660e01b8152600401808473ffffffffffffffffffffffffffffffffffffffff1681526020018373ffffffffffffffffffffffffffffffffffffffff1681526020018281526020019350505050602060405180830381600087803b15801561283b57600080fd5b505af115801561284f573d6000803e3d6000fd5b505050506040513d602081101561286557600080fd5b8101908080519060200190929190505050506128da83600360003373ffffffffffffffffffffffffffffffffffffffff1673ffffffffffffffffffffffffffffffffffffffff168152602001908152602001600020600085815260200190815260200160002054612b2590919063ffffffff16565b600360003373ffffffffffffffffffffffffffffffffffffffff1673ffffffffffffffffffffffffffffffffffffffff168152602001908152602001600020600084815260200190815260200160002081905550505050565b61293b612c33565b73ffffffffffffffffffffffffffffffffffffffff16612959611089565b73ffffffffffffffffffffffffffffffffffffffff16146129e2576040517f08c379a00000000000000000000000000000000000000000000000000000000081526004018080602001828103825260208152602001807f4f776e61626c653a2063616c6c6572206973206e6f7420746865206f776e657281525060200191505060405180910390fd5b600073ffffffffffffffffffffffffffffffffffffffff168173ffffffffffffffffffffffffffffffffffffffff161415612a68576040517f08c379a00000000000000000000000000000000000000000000000000000000081526004018080602001828103825260268152602001806134206026913960400191505060405180910390fd5b8073ffffffffffffffffffffffffffffffffffffffff1660008054906101000a900473ffffffffffffffffffffffffffffffffffffffff1673ffffffffffffffffffffffffffffffffffffffff167f8be0079c531659141344cd1fd0a4f28419497f9722a3daafe3b4186f6b6457e060405160405180910390a3806000806101000a81548173ffffffffffffffffffffffffffffffffffffffff021916908373ffffffffffffffffffffffffffffffffffffffff16021790555050565b600080828401905083811015612ba3576040517f08c379a000000000000000000000000000000000000000000000000000000000815260040180806020018281038252601b8152602001807f536166654d6174683a206164646974696f6e206f766572666c6f77000000000081525060200191505060405180910390fd5b8091505092915050565b600080831415612bc05760009050612c2d565b6000828402905082848281612bd157fe5b0414612c28576040517f08c379a00000000000000000000000000000000000000000000000000000000081526004018080602001828103825260218152602001806134466021913960400191505060405180910390fd5b809150505b92915050565b600033905090565b600082821115612cb3576040517f08c379a000000000000000000000000000000000000000000000000000000000815260040180806020018281038252601e8152602001807f536166654d6174683a207375627472616374696f6e206f766572666c6f77000081525060200191505060405180910390fd5b818303905092915050565b600081359050612ccd816133ca565b92915050565b600081359050612ce2816133e1565b92915050565b600081359050612cf7816133f8565b92915050565b600081359050612d0c81613408565b92915050565b600060208284031215612d2457600080fd5b6000612d3284828501612cbe565b91505092915050565b60008060408385031215612d4e57600080fd5b6000612d5c85828601612cbe565b9250506020612d6d85828601612cd3565b9150509250929050565b600060208284031215612d8957600080fd5b6000612d9784828501612cd3565b91505092915050565b60008060408385031215612db357600080fd5b6000612dc185828601612cd3565b9250506020612dd285828601612cbe565b9150509250929050565b60008060408385031215612def57600080fd5b6000612dfd85828601612cd3565b9250506020612e0e85828601612ce8565b9150509250929050565b600080600060608486031215612e2d57600080fd5b6000612e3b86828701612cd3565b9350506020612e4c86828701612cfd565b9250506040612e5d86828701612cfd565b9150509250925092565b600080600060608486031215612e7c57600080fd5b6000612e8a86828701612ce8565b9350506020612e9b86828701612cd3565b9250506040612eac86828701612cfd565b9150509250925092565b60008060008060808587031215612ecc57600080fd5b6000612eda87828801612ce8565b9450506020612eeb87828801612cd3565b9350506040612efc87828801612cfd565b9250506060612f0d87828801612cfd565b91505092959194509250565b600060208284031215612f2b57600080fd5b6000612f3984828501612cfd565b91505092915050565b60008060408385031215612f5557600080fd5b6000612f6385828601612cfd565b9250506020612f7485828601612cd3565b9150509250929050565b6000612f8a83836130e8565b60e08301905092915050565b612f9f81613349565b82525050565b612fae81613349565b82525050565b6000612fbf82613304565b612fc9818561331c565b9350612fd4836132f4565b8060005b83811015613005578151612fec8882612f7e565b9750612ff78361330f565b925050600181019050612fd8565b5085935050505092915050565b61301b8161335b565b82525050565b61302a8161335b565b82525050565b613039816133a2565b82525050565b613048816133a2565b82525050565b600061305b601283613338565b91507f496e7375666669656e742062616c616e636500000000000000000000000000006000830152602082019050919050565b600061309b601483613338565b91507f496e73756666696369656e742062616c616e63650000000000000000000000006000830152602082019050919050565b60006130db60008361332d565b9150600082019050919050565b60e0820160008201516130fe6000850182613176565b5060208201516131116020850182612f96565b5060408201516131246040850182613030565b5060608201516131376060850182613012565b50608082015161314a6080850182613176565b5060a082015161315d60a0850182613176565b5060c082015161317060c0850182613176565b50505050565b61317f81613398565b82525050565b61318e81613398565b82525050565b600061319f826130ce565b9150819050919050565b60006020820190506131be6000830184612fa5565b92915050565b600060208201905081810360008301526131de8184612fb4565b905092915050565b60006020820190506131fb6000830184613021565b92915050565b60006040820190506132166000830185613021565b6132236020830184612fa5565b9392505050565b600060208201905081810360008301526132438161304e565b9050919050565b600060208201905081810360008301526132638161308e565b9050919050565b600060208201905061327f6000830184613185565b92915050565b600060e08201905061329a600083018a613185565b6132a76020830189612fa5565b6132b4604083018861303f565b6132c16060830187613021565b6132ce6080830186613185565b6132db60a0830185613185565b6132e860c0830184613185565b98975050505050505050565b6000819050602082019050919050565b600081519050919050565b6000602082019050919050565b600082825260208201905092915050565b600081905092915050565b600082825260208201905092915050565b600061335482613378565b9050919050565b6000819050919050565b6000819050613373826133b6565b919050565b600073ffffffffffffffffffffffffffffffffffffffff82169050919050565b6000819050919050565b60006133ad82613365565b9050919050565bfe5b600281106133c7576133c66133b4565b5b50565b6133d381613349565b81146133de57600080fd5b50565b6133ea8161335b565b81146133f557600080fd5b50565b6002811061340557600080fd5b50565b61341181613398565b811461341c57600080fd5b5056fe4f776e61626c653a206e6577206f776e657220697320746865207a65726f2061646472657373536166654d6174683a206d756c7469706c69636174696f6e206f766572666c6f77a264697066735822122051d58db4d920e6477b5e90aef742b5021fcd4a8f8ba6657eab44cbbbb96d8b0f64736f6c63430007060033",
  "immutableReferences": {},
  "source": "pragma solidity >=0.6.0 <0.8.0;\r\npragma experimental ABIEncoderV2;\r\n\r\nimport \"./Wallet.sol\";\r\n\r\ncontract Dex is Wallet{\r\n\r\n    using SafeMath for uint256;\r\n\r\n    enum Side {\r\n        BUY,\r\n        SELL\r\n    }\r\n\r\n    struct Order {\r\n        uint id;\r\n        address trader;\r\n        Side side;\r\n        bytes32 ticker;\r\n        uint amount;\r\n        uint price;\r\n        uint filled;\r\n    }\r\n\r\n    uint public nextOrderId = 0;\r\n\r\n    mapping(bytes32 => mapping(uint => Order[])) public orderBook;\r\n\r\n    function getOrderBook(bytes32 ticker, Side side) view public returns(Order[] memory){\r\n        return orderBook[ticker][uint(side)];\r\n    }\r\n\r\n  function depositEth() payable external {\r\n      balances[msg.sender][bytes32(\"ETH\")] = balances[msg.sender][bytes32(\"ETH\")].add(msg.value);\r\n   }\r\n\r\n   function withdrawEth(uint amount) external {\r\n       require(balances[msg.sender][bytes32(\"ETH\")] >= amount,'Insufficient balance');\r\n       balances[msg.sender][bytes32(\"ETH\")] = balances[msg.sender][bytes32(\"ETH\")].sub(amount);\r\n       msg.sender.call{value:amount}(\"\");\r\n   }\r\n\r\n\r\n    function createLimitOrder(Side side, bytes32 ticker, uint amount, uint price) public{\r\n        if(side == Side.BUY){\r\n            require(balances[msg.sender][\"ETH\"] >= amount.mul(price));\r\n        }\r\n        else if(side == Side.SELL){\r\n            require(balances[msg.sender][ticker] >= amount);\r\n        }\r\n\r\n        Order[] storage orders = orderBook[ticker][uint(side)];\r\n        orders.push(\r\n            Order(nextOrderId, msg.sender, side, ticker, amount, price, 0)\r\n        );\r\n\r\n        //Bubble sort\r\n        uint i = orders.length > 0 ? orders.length - 1 : 0;\r\n        if(side == Side.BUY){\r\n            while(i > 0){\r\n                if(orders[i - 1].price > orders[i].price) {\r\n                    break;\r\n                }\r\n                Order memory orderToMove = orders[i - 1];\r\n                orders[i - 1] = orders[i];\r\n                orders[i] = orderToMove;\r\n                i--;\r\n            }\r\n        }\r\n        else if(side == Side.SELL){\r\n            while(i > 0){\r\n                if(orders[i - 1].price < orders[i].price) {\r\n                    break;\r\n                }\r\n                Order memory orderToMove = orders[i - 1];\r\n                orders[i - 1] = orders[i];\r\n                orders[i] = orderToMove;\r\n                i--;\r\n            }\r\n        }\r\n\r\n        nextOrderId++;\r\n    }\r\n\r\n    function createMarketOrder(Side side, bytes32 ticker, uint amount) public{\r\n        if(side == Side.SELL){\r\n            require(balances[msg.sender][ticker] >= amount, \"Insuffient balance\");\r\n        }\r\n\r\n        uint orderBookSide;\r\n        if(side == Side.BUY){\r\n            orderBookSide = 1;\r\n        }\r\n        else{\r\n            orderBookSide = 0;\r\n        }\r\n        Order[] storage orders = orderBook[ticker][orderBookSide];\r\n\r\n        uint totalFilled = 0;\r\n\r\n        for (uint256 i = 0; i < orders.length && totalFilled < amount; i++) {\r\n            uint leftToFill = amount.sub(totalFilled);\r\n            uint availableToFill = orders[i].amount.sub(orders[i].filled);\r\n            uint filled = 0;\r\n            if(availableToFill > leftToFill){\r\n                filled = leftToFill; //Fill the entire market order\r\n            }\r\n            else{\r\n                filled = availableToFill; //Fill as much as is available in order[i]\r\n            }\r\n\r\n            totalFilled = totalFilled.add(filled);\r\n            orders[i].filled = orders[i].filled.add(filled);\r\n            uint cost = filled.mul(orders[i].price);\r\n\r\n            if(side == Side.BUY){\r\n                //Verify that the buyer has enough ETH to cover the purchase (require)\r\n                require(balances[msg.sender][\"ETH\"] >= cost);\r\n                //msg.sender is the buyer\r\n                balances[msg.sender][ticker] = balances[msg.sender][ticker].add(filled);\r\n                balances[msg.sender][\"ETH\"] = balances[msg.sender][\"ETH\"].sub(cost);\r\n\r\n                balances[orders[i].trader][ticker] = balances[orders[i].trader][ticker].sub(filled);\r\n                balances[orders[i].trader][\"ETH\"] = balances[orders[i].trader][\"ETH\"].add(cost);\r\n            }\r\n            else if(side == Side.SELL){\r\n                //Msg.sender is the seller\r\n                balances[msg.sender][ticker] = balances[msg.sender][ticker].sub(filled);\r\n                balances[msg.sender][\"ETH\"] = balances[msg.sender][\"ETH\"].add(cost);\r\n\r\n                balances[orders[i].trader][ticker] = balances[orders[i].trader][ticker].add(filled);\r\n                balances[orders[i].trader][\"ETH\"] = balances[orders[i].trader][\"ETH\"].sub(cost);\r\n            }\r\n\r\n        }\r\n            //Remove 100% filled orders from the orderbook\r\n        while(orders.length > 0 && orders[0].filled == orders[0].amount){\r\n            //Remove the top element in the orders array by overwriting every element\r\n            // with the next element in the order list\r\n            for (uint256 i = 0; i < orders.length - 1; i++) {\r\n                orders[i] = orders[i + 1];\r\n            }\r\n            orders.pop();\r\n        }\r\n\r\n    }\r\n\r\n    function getTokenListLength() public returns (uint){\r\n      return tokenList.length;\r\n    }\r\n}\r\n\r\n//OLD CODE\r\n/*pragma solidity >=0.6.0 <0.8.0;\r\npragma experimental ABIEncoderV2;\r\n\r\nimport \"./Wallet.sol\";\r\n\r\ncontract Dex is Wallet{\r\n\r\n  using SafeMath for uint256;\r\n\r\n    enum Side{\r\n      BUY,\r\n      SELL\r\n    }\r\n\r\n  struct Order{\r\n    uint id;\r\n    address trader;\r\n    Side side;\r\n    bytes32 ticker;\r\n    uint amount;\r\n    uint price;\r\n    uint filled;\r\n  }\r\n\r\n\r\n\r\n  uint public nextOrderId = 0;\r\n\r\n  mapping (bytes32 => mapping (uint => Order[])) public orderBook;\r\n\r\n  function getOrderBook(bytes32 ticker, Side side) view public returns(Order[] memory){\r\n      return orderBook[ticker][uint(side)];\r\n  }\r\n\r\n\r\n\r\n    function depositEth() payable external {\r\n         balances[msg.sender][bytes32(\"ETH\")] = balances[msg.sender][bytes32(\"ETH\")].add(msg.value);\r\n     }\r\n\r\n     function withdrawEth(uint amount) external {\r\n         require(balances[msg.sender][bytes32(\"ETH\")] >= amount,'Insufficient balance');\r\n         balances[msg.sender][bytes32(\"ETH\")] = balances[msg.sender][bytes32(\"ETH\")].sub(amount);\r\n         msg.sender.call{value:amount}(\"\");\r\n     }\r\n\r\n\r\n\r\n  function createLimitOrder(Side side, bytes32 ticker, uint amount, uint price) public {\r\n\r\n      if(side == Side.BUY)\r\n      {\r\n        require(balances[msg.sender][\"ETH\"] >= amount.mul(price), \"Insufficient funds to create this order!\");\r\n      }\r\n      else if(side == Side.SELL)\r\n      {\r\n        require(balances[msg.sender][ticker] >= amount, \"Insufficient token amount!\");\r\n      }\r\n\r\n      //To store orders, will have [Order1, Order2, ...] each order will be either a buy or sell order\r\n      Order[] storage orders = orderBook[ticker][uint(side)];  //side is an enum and has to be converted to uint before using in a reference for a mapping!!\r\n      //pushing the new order into the orders array, that is pointing to orderBook!!! strange, complicated but efficient\r\n      orders.push(\r\n        Order(nextOrderId, msg.sender, side, ticker, amount, price, 0)\r\n      );\r\n\r\n      //Bubble sort for BUY orderBook, GOAL: have highest price at index 0, then price declining\r\n\r\n      uint i = orders.length > 0 ? orders.length - 1 : 0;  //If orders.length is bigger 0 then i = oders.length - 1, else i = 0;  Shorted if statement!! Crazy stuff, haha, so cryptic!!\r\n\r\n        if(side == Side.BUY){\r\n            while(i > 0){\r\n                if(orders[i - 1].price > orders[i].price) {\r\n                    break;\r\n                }\r\n                Order memory orderToMove = orders[i - 1];\r\n                orders[i - 1] = orders[i];\r\n                orders[i] = orderToMove;\r\n                i--;\r\n            }\r\n        }\r\n        else if(side == Side.SELL){\r\n            while(i > 0){\r\n                if(orders[i - 1].price < orders[i].price) {\r\n                    break;\r\n                }\r\n                Order memory orderToMove = orders[i - 1];\r\n                orders[i - 1] = orders[i];\r\n                orders[i] = orderToMove;\r\n                i--;\r\n            }\r\n        }\r\n\r\n          nextOrderId++;\r\n}\r\n\r\n\r\n\r\nfunction createMarketOrder(Side side, bytes32 ticker, uint amount) public payable {\r\n  if(side == Side.SELL){\r\n    require(balances[msg.sender][ticker] >= amount, \"Insufficient funds!\");\r\n\r\n  }\r\n\r\n  uint orderBookSide;\r\n\r\n  if(side == Side.BUY){\r\n    orderBookSide = 1;\r\n  }\r\n  else if(side == Side.SELL){\r\n    orderBookSide = 0;\r\n  }\r\n  Order[] storage orders = orderBook[ticker][orderBookSide];\r\n\r\n  uint totalFilled = 0;\r\n\r\n  for (uint256 i = 0; i < orders.length && totalFilled < amount; i++){\r\n\r\n    //How much can we fill from order[i]\r\n    uint neededToFill = amount.sub(totalFilled);\r\n    uint availableToFill = orders[i].amount.sub(orders[i].filled);\r\n    uint isFilled = 0;\r\n    if(availableToFill > neededToFill){\r\n      isFilled = neededToFill; //If entire order is ready to be filled\r\n    }\r\n    else if(availableToFill <= neededToFill){\r\n      isFilled = availableToFill; //If order[i] is only partially filled\r\n    }\r\n    //Update totalFilled;\r\n    totalFilled = totalFilled.add(isFilled);\r\n    //Update order\r\n    orders[i].filled = orders[i].filled.add(isFilled);\r\n\r\n    uint cost = isFilled.mul(orders[i].price);\r\n\r\n    if(side == Side.BUY){\r\n      //Verify that buyer has enough ETH to cover buy\r\n      require(balances[msg.sender][\"ETH\"] >= cost);  //isFilled stands for how much is available to fill from previous calculation, see \"HOW MUCH CAN WE FILL\" - Code\r\n      //Execute the trade (adjust balances)\r\n      balances[msg.sender][\"ETH\"] = balances[msg.sender][\"ETH\"].sub(cost); //decrease eth balance of buyer\r\n      balances[msg.sender][ticker] = balances[msg.sender][ticker].add(isFilled); //increase Token balance of buyer\r\n\r\n      balances[orders[i].trader][\"ETH\"] = balances[orders[i].trader][\"ETH\"].add(cost);  //increase eth balance of seller\r\n      balances[orders[i].trader][ticker] = balances[orders[i].trader][ticker].sub(isFilled); //decrease token balance of seller\r\n    }\r\n    else if(side == Side.SELL){\r\n      //Execute the trade (adjust balances)\r\n      balances[msg.sender][ticker] = balances[msg.sender][ticker].sub(isFilled); //increase Token balance of buyer\r\n      balances[msg.sender][\"ETH\"] = balances[msg.sender][\"ETH\"].add(cost); //decrease eth balance of buyer\r\n\r\n      balances[orders[i].trader][ticker] = balances[orders[i].trader][ticker].add(isFilled); //decrease token balance of seller\r\n      balances[orders[i].trader][\"ETH\"] = balances[orders[i].trader][\"ETH\"].sub(cost);  //increase eth balance of seller\r\n    }\r\n  } //For loop close Bracket\r\n\r\n  //Loop through orderBook and remove 100% Filled orders\r\n  while(orders[0].filled == orders[0].amount && orders.length > 0){\r\n    //Remove the top order from order array by overwriting every element with the next element, shifting the elements in the array!\r\n    for(uint i = 0; i < orders.length - 1; i++){\r\n      orders[i] = orders[i+1];\r\n    }\r\n    orders.pop();\r\n  }\r\n\r\n} //createMarketOrder close Bracket\r\n\r\n\r\n\r\n//MY TRY ON createMarketOrder\r\n/*\r\nif(orders.length == 0){\r\n  Order memory newOrder = (nextOrderId, msg.sender, side, ticker, amount);\r\n  marketOrders.push(newOrder);\r\n}\r\nif(orders[i].ticker >= amount){\r\n\r\n  if(orders[i].amount == 0){\r\n    //delete LimitOrder\r\n  }\r\n  else {\r\n    orderBookSide = 0;\r\n    orders[i].amount = orders[i].amount.sub(amount);\r\n\r\n  }\r\n}\r\n*/\r\n\r\n\r\n/*\r\n}\r\n*/\r\n",
  "sourcePath": "C:/Users/sound/Desktop/EthProjects/DEX/contracts/Dex.sol",
  "compiler": {
    "name": "solc",
    "version": "0.7.6+commit.7338295f.Emscripten.clang"
  },
  "schemaVersion": "3.3.4",
  "updatedAt": "2021-03-29T07:58:16.564Z",
  "networkType": "ethereum",
  "devdoc": {
    "kind": "dev",
    "methods": {
      "owner()": {
        "details": "Returns the address of the current owner."
      },
      "renounceOwnership()": {
        "details": "Leaves the contract without owner. It will not be possible to call `onlyOwner` functions anymore. Can only be called by the current owner. NOTE: Renouncing ownership will leave the contract without an owner, thereby removing any functionality that is only available to the owner."
      },
      "transferOwnership(address)": {
        "details": "Transfers ownership of the contract to a new account (`newOwner`). Can only be called by the current owner."
      }
    },
    "version": 1
  },
  "userdoc": {
    "kind": "user",
    "methods": {},
    "version": 1
  }
}