{
  "contractName": "Dex",
  "abi": [
    {
      "anonymous": false,
      "inputs": [
        {
          "indexed": true,
          "internalType": "address",
          "name": "previousOwner",
          "type": "address"
        },
        {
          "indexed": true,
          "internalType": "address",
          "name": "newOwner",
          "type": "address"
        }
      ],
      "name": "OwnershipTransferred",
      "type": "event"
    },
    {
      "inputs": [
        {
          "internalType": "bytes32",
          "name": "ticker",
          "type": "bytes32"
        },
        {
          "internalType": "address",
          "name": "tokenAddress",
          "type": "address"
        }
      ],
      "name": "addToken",
      "outputs": [],
      "stateMutability": "nonpayable",
      "type": "function"
    },
    {
      "inputs": [
        {
          "internalType": "address",
          "name": "",
          "type": "address"
        },
        {
          "internalType": "bytes32",
          "name": "",
          "type": "bytes32"
        }
      ],
      "name": "balances",
      "outputs": [
        {
          "internalType": "uint256",
          "name": "",
          "type": "uint256"
        }
      ],
      "stateMutability": "view",
      "type": "function",
      "constant": true
    },
    {
      "inputs": [
        {
          "internalType": "uint256",
          "name": "amount",
          "type": "uint256"
        },
        {
          "internalType": "bytes32",
          "name": "ticker",
          "type": "bytes32"
        }
      ],
      "name": "deposit",
      "outputs": [],
      "stateMutability": "nonpayable",
      "type": "function"
    },
    {
      "inputs": [],
      "name": "nextOrderId",
      "outputs": [
        {
          "internalType": "uint256",
          "name": "",
          "type": "uint256"
        }
      ],
      "stateMutability": "view",
      "type": "function",
      "constant": true
    },
    {
      "inputs": [
        {
          "internalType": "bytes32",
          "name": "",
          "type": "bytes32"
        },
        {
          "internalType": "uint256",
          "name": "",
          "type": "uint256"
        },
        {
          "internalType": "uint256",
          "name": "",
          "type": "uint256"
        }
      ],
      "name": "orderBook",
      "outputs": [
        {
          "internalType": "uint256",
          "name": "id",
          "type": "uint256"
        },
        {
          "internalType": "address",
          "name": "trader",
          "type": "address"
        },
        {
          "internalType": "enum Dex.Side",
          "name": "side",
          "type": "uint8"
        },
        {
          "internalType": "bytes32",
          "name": "ticker",
          "type": "bytes32"
        },
        {
          "internalType": "uint256",
          "name": "amount",
          "type": "uint256"
        },
        {
          "internalType": "uint256",
          "name": "price",
          "type": "uint256"
        },
        {
          "internalType": "uint256",
          "name": "filled",
          "type": "uint256"
        }
      ],
      "stateMutability": "view",
      "type": "function",
      "constant": true
    },
    {
      "inputs": [],
      "name": "owner",
      "outputs": [
        {
          "internalType": "address",
          "name": "",
          "type": "address"
        }
      ],
      "stateMutability": "view",
      "type": "function",
      "constant": true
    },
    {
      "inputs": [],
      "name": "renounceOwnership",
      "outputs": [],
      "stateMutability": "nonpayable",
      "type": "function"
    },
    {
      "inputs": [
        {
          "internalType": "uint256",
          "name": "",
          "type": "uint256"
        }
      ],
      "name": "tokenList",
      "outputs": [
        {
          "internalType": "bytes32",
          "name": "",
          "type": "bytes32"
        }
      ],
      "stateMutability": "view",
      "type": "function",
      "constant": true
    },
    {
      "inputs": [
        {
          "internalType": "bytes32",
          "name": "",
          "type": "bytes32"
        }
      ],
      "name": "tokenMapping",
      "outputs": [
        {
          "internalType": "bytes32",
          "name": "ticker",
          "type": "bytes32"
        },
        {
          "internalType": "address",
          "name": "tokenAddress",
          "type": "address"
        }
      ],
      "stateMutability": "view",
      "type": "function",
      "constant": true
    },
    {
      "inputs": [
        {
          "internalType": "address",
          "name": "newOwner",
          "type": "address"
        }
      ],
      "name": "transferOwnership",
      "outputs": [],
      "stateMutability": "nonpayable",
      "type": "function"
    },
    {
      "inputs": [
        {
          "internalType": "uint256",
          "name": "amount",
          "type": "uint256"
        },
        {
          "internalType": "bytes32",
          "name": "ticker",
          "type": "bytes32"
        }
      ],
      "name": "withdraw",
      "outputs": [],
      "stateMutability": "nonpayable",
      "type": "function"
    },
    {
      "inputs": [
        {
          "internalType": "bytes32",
          "name": "ticker",
          "type": "bytes32"
        },
        {
          "internalType": "enum Dex.Side",
          "name": "side",
          "type": "uint8"
        }
      ],
      "name": "getOrderBook",
      "outputs": [
        {
          "components": [
            {
              "internalType": "uint256",
              "name": "id",
              "type": "uint256"
            },
            {
              "internalType": "address",
              "name": "trader",
              "type": "address"
            },
            {
              "internalType": "enum Dex.Side",
              "name": "side",
              "type": "uint8"
            },
            {
              "internalType": "bytes32",
              "name": "ticker",
              "type": "bytes32"
            },
            {
              "internalType": "uint256",
              "name": "amount",
              "type": "uint256"
            },
            {
              "internalType": "uint256",
              "name": "price",
              "type": "uint256"
            },
            {
              "internalType": "uint256",
              "name": "filled",
              "type": "uint256"
            }
          ],
          "internalType": "struct Dex.Order[]",
          "name": "",
          "type": "tuple[]"
        }
      ],
      "stateMutability": "view",
      "type": "function",
      "constant": true
    },
    {
      "inputs": [],
      "name": "depositEth",
      "outputs": [],
      "stateMutability": "payable",
      "type": "function",
      "payable": true
    },
    {
      "inputs": [
        {
          "internalType": "uint256",
          "name": "amount",
          "type": "uint256"
        }
      ],
      "name": "withdrawEth",
      "outputs": [],
      "stateMutability": "nonpayable",
      "type": "function"
    },
    {
      "inputs": [
        {
          "internalType": "enum Dex.Side",
          "name": "side",
          "type": "uint8"
        },
        {
          "internalType": "bytes32",
          "name": "ticker",
          "type": "bytes32"
        },
        {
          "internalType": "uint256",
          "name": "amount",
          "type": "uint256"
        },
        {
          "internalType": "uint256",
          "name": "price",
          "type": "uint256"
        }
      ],
      "name": "createLimitOrder",
      "outputs": [],
      "stateMutability": "nonpayable",
      "type": "function"
    },
    {
      "inputs": [
        {
          "internalType": "enum Dex.Side",
          "name": "side",
          "type": "uint8"
        },
        {
          "internalType": "bytes32",
          "name": "ticker",
          "type": "bytes32"
        },
        {
          "internalType": "uint256",
          "name": "amount",
          "type": "uint256"
        }
      ],
      "name": "createMarketOrder",
      "outputs": [],
      "stateMutability": "nonpayable",
      "type": "function"
    }
  ],
  "bytecode": "0x608060405260006004553480156200001657600080fd5b50600062000029620000cd60201b60201c565b9050806000806101000a81548173ffffffffffffffffffffffffffffffffffffffff021916908373ffffffffffffffffffffffffffffffffffffffff1602179055508073ffffffffffffffffffffffffffffffffffffffff16600073ffffffffffffffffffffffffffffffffffffffff167f8be0079c531659141344cd1fd0a4f28419497f9722a3daafe3b4186f6b6457e060405160405180910390a350620000d5565b600033905090565b61346680620000e56000396000f3fe6080604052600436106100f35760003560e01c80639776aacf1161008a578063ba58ea6811610059578063ba58ea681461030e578063c311d0491461034b578063c9630cb014610374578063f2fde38b1461039d576100f3565b80639776aacf1461025657806399ec2f1c1461027f5780639ead7222146102a8578063a8d2021a146102e5576100f3565b8063667cb4ba116100c6578063667cb4ba146101ad5780636f3b62f9146101eb578063715018a6146102145780638da5cb5b1461022b576100f3565b80630bb431b6146100f85780631f14df691461013b5780632a58b33014610178578063439370b1146101a3575b600080fd5b34801561010457600080fd5b5061011f600480360381019061011a9190612de2565b6103c6565b604051610132979695949392919061324f565b60405180910390f35b34801561014757600080fd5b50610162600480360381019061015d9190612d05565b61045f565b60405161016f9190613234565b60405180910390f35b34801561018457600080fd5b5061018d610484565b60405161019a9190613234565b60405180910390f35b6101ab61048a565b005b3480156101b957600080fd5b506101d460048036038101906101cf9190612d41565b610583565b6040516101e29291906131cb565b60405180910390f35b3480156101f757600080fd5b50610212600480360381019061020d9190612e80565b6105c7565b005b34801561022057600080fd5b50610229610ee6565b005b34801561023757600080fd5b50610240611053565b60405161024d9190613173565b60405180910390f35b34801561026257600080fd5b5061027d60048036038101906102789190612d6a565b61107c565b005b34801561028b57600080fd5b506102a660048036038101906102a19190612e31565b6111ea565b005b3480156102b457600080fd5b506102cf60048036038101906102ca9190612ee3565b611fa9565b6040516102dc91906131b0565b60405180910390f35b3480156102f157600080fd5b5061030c60048036038101906103079190612f0c565b611fcd565b005b34801561031a57600080fd5b5061033560048036038101906103309190612da6565b61230c565b604051610342919061318e565b60405180910390f35b34801561035757600080fd5b50610372600480360381019061036d9190612ee3565b612450565b005b34801561038057600080fd5b5061039b60048036038101906103969190612f0c565b612666565b005b3480156103a957600080fd5b506103c460048036038101906103bf9190612cdc565b6128fd565b005b600560205282600052604060002060205281600052604060002081815481106103ee57600080fd5b906000526020600020906006020160009250925050508060000154908060010160009054906101000a900473ffffffffffffffffffffffffffffffffffffffff16908060010160149054906101000a900460ff16908060020154908060030154908060040154908060050154905087565b6003602052816000526040600020602052806000526040600020600091509150505481565b60045481565b61050d34600360003373ffffffffffffffffffffffffffffffffffffffff1673ffffffffffffffffffffffffffffffffffffffff16815260200190815260200160002060007f4554480000000000000000000000000000000000000000000000000000000000815260200190815260200160002054612aef90919063ffffffff16565b600360003373ffffffffffffffffffffffffffffffffffffffff1673ffffffffffffffffffffffffffffffffffffffff16815260200190815260200160002060007f4554480000000000000000000000000000000000000000000000000000000000815260200190815260200160002081905550565b60026020528060005260406000206000915090508060000154908060010160009054906101000a900473ffffffffffffffffffffffffffffffffffffffff16905082565b600060018111156105d457fe5b8460018111156105e057fe5b141561067a576105f98183612b7790919063ffffffff16565b600360003373ffffffffffffffffffffffffffffffffffffffff1673ffffffffffffffffffffffffffffffffffffffff16815260200190815260200160002060007f4554480000000000000000000000000000000000000000000000000000000000815260200190815260200160002054101561067557600080fd5b6106f7565b60018081111561068657fe5b84600181111561069257fe5b14156106f65781600360003373ffffffffffffffffffffffffffffffffffffffff1673ffffffffffffffffffffffffffffffffffffffff16815260200190815260200160002060008581526020019081526020016000205410156106f557600080fd5b5b5b600060056000858152602001908152602001600020600086600181111561071a57fe5b81526020019081526020016000209050806040518060e0016040528060045481526020013373ffffffffffffffffffffffffffffffffffffffff16815260200187600181111561076657fe5b8152602001868152602001858152602001848152602001600081525090806001815401808255809150506001900390600052602060002090600602016000909190919091506000820151816000015560208201518160010160006101000a81548173ffffffffffffffffffffffffffffffffffffffff021916908373ffffffffffffffffffffffffffffffffffffffff16021790555060408201518160010160146101000a81548160ff0219169083600181111561082057fe5b0217905550606082015181600201556080820151816003015560a0820151816004015560c08201518160050155505060008082805490501161086357600061086c565b60018280549050035b90506000600181111561087b57fe5b86600181111561088757fe5b1415610b9f575b6000811115610b9a578181815481106108a357fe5b9060005260206000209060060201600401548260018303815481106108c457fe5b90600052602060002090600602016004015411156108e157610b9a565b60008260018303815481106108f257fe5b90600052602060002090600602016040518060e0016040529081600082015481526020016001820160009054906101000a900473ffffffffffffffffffffffffffffffffffffffff1673ffffffffffffffffffffffffffffffffffffffff1673ffffffffffffffffffffffffffffffffffffffff1681526020016001820160149054906101000a900460ff16600181111561098957fe5b600181111561099457fe5b815260200160028201548152602001600382015481526020016004820154815260200160058201548152505090508282815481106109ce57fe5b90600052602060002090600602018360018403815481106109eb57fe5b9060005260206000209060060201600082015481600001556001820160009054906101000a900473ffffffffffffffffffffffffffffffffffffffff168160010160006101000a81548173ffffffffffffffffffffffffffffffffffffffff021916908373ffffffffffffffffffffffffffffffffffffffff1602179055506001820160149054906101000a900460ff168160010160146101000a81548160ff02191690836001811115610a9b57fe5b02179055506002820154816002015560038201548160030155600482015481600401556005820154816005015590505080838381548110610ad857fe5b90600052602060002090600602016000820151816000015560208201518160010160006101000a81548173ffffffffffffffffffffffffffffffffffffffff021916908373ffffffffffffffffffffffffffffffffffffffff16021790555060408201518160010160146101000a81548160ff02191690836001811115610b5b57fe5b0217905550606082015181600201556080820151816003015560a0820151816004015560c082015181600501559050508180600190039250505061088e565b610ecc565b600180811115610bab57fe5b866001811115610bb757fe5b1415610ecb575b6000811115610eca57818181548110610bd357fe5b906000526020600020906006020160040154826001830381548110610bf457fe5b9060005260206000209060060201600401541015610c1157610eca565b6000826001830381548110610c2257fe5b90600052602060002090600602016040518060e0016040529081600082015481526020016001820160009054906101000a900473ffffffffffffffffffffffffffffffffffffffff1673ffffffffffffffffffffffffffffffffffffffff1673ffffffffffffffffffffffffffffffffffffffff1681526020016001820160149054906101000a900460ff166001811115610cb957fe5b6001811115610cc457fe5b81526020016002820154815260200160038201548152602001600482015481526020016005820154815250509050828281548110610cfe57fe5b9060005260206000209060060201836001840381548110610d1b57fe5b9060005260206000209060060201600082015481600001556001820160009054906101000a900473ffffffffffffffffffffffffffffffffffffffff168160010160006101000a81548173ffffffffffffffffffffffffffffffffffffffff021916908373ffffffffffffffffffffffffffffffffffffffff1602179055506001820160149054906101000a900460ff168160010160146101000a81548160ff02191690836001811115610dcb57fe5b02179055506002820154816002015560038201548160030155600482015481600401556005820154816005015590505080838381548110610e0857fe5b90600052602060002090600602016000820151816000015560208201518160010160006101000a81548173ffffffffffffffffffffffffffffffffffffffff021916908373ffffffffffffffffffffffffffffffffffffffff16021790555060408201518160010160146101000a81548160ff02191690836001811115610e8b57fe5b0217905550606082015181600201556080820151816003015560a0820151816004015560c0820151816005015590505081806001900392505050610bbe565b5b5b600460008154809291906001019190505550505050505050565b610eee612bfd565b73ffffffffffffffffffffffffffffffffffffffff16610f0c611053565b73ffffffffffffffffffffffffffffffffffffffff1614610f95576040517f08c379a00000000000000000000000000000000000000000000000000000000081526004018080602001828103825260208152602001807f4f776e61626c653a2063616c6c6572206973206e6f7420746865206f776e657281525060200191505060405180910390fd5b600073ffffffffffffffffffffffffffffffffffffffff1660008054906101000a900473ffffffffffffffffffffffffffffffffffffffff1673ffffffffffffffffffffffffffffffffffffffff167f8be0079c531659141344cd1fd0a4f28419497f9722a3daafe3b4186f6b6457e060405160405180910390a360008060006101000a81548173ffffffffffffffffffffffffffffffffffffffff021916908373ffffffffffffffffffffffffffffffffffffffff160217905550565b60008060009054906101000a900473ffffffffffffffffffffffffffffffffffffffff16905090565b611084612bfd565b73ffffffffffffffffffffffffffffffffffffffff166110a2611053565b73ffffffffffffffffffffffffffffffffffffffff161461112b576040517f08c379a00000000000000000000000000000000000000000000000000000000081526004018080602001828103825260208152602001807f4f776e61626c653a2063616c6c6572206973206e6f7420746865206f776e657281525060200191505060405180910390fd5b60405180604001604052808381526020018273ffffffffffffffffffffffffffffffffffffffff16815250600260008481526020019081526020016000206000820151816000015560208201518160010160006101000a81548173ffffffffffffffffffffffffffffffffffffffff021916908373ffffffffffffffffffffffffffffffffffffffff16021790555090505060018290806001815401808255809150506001900390600052602060002001600090919091909150555050565b6001808111156111f657fe5b83600181111561120257fe5b141561129c5780600360003373ffffffffffffffffffffffffffffffffffffffff1673ffffffffffffffffffffffffffffffffffffffff168152602001908152602001600020600084815260200190815260200160002054101561129b576040517f08c379a0000000000000000000000000000000000000000000000000000000008152600401611292906131f4565b60405180910390fd5b5b60008060018111156112aa57fe5b8460018111156112b657fe5b14156112c557600190506112ca565b600090505b600060056000858152602001908152602001600020600083815260200190815260200160002090506000805b82805490508110801561130857508482105b15611d975760006113228387612c0590919063ffffffff16565b9050600061137385848154811061133557fe5b90600052602060002090600602016005015486858154811061135357fe5b906000526020600020906006020160030154612c0590919063ffffffff16565b90506000828211156113875782905061138b565b8190505b61139e8186612aef90919063ffffffff16565b94506113d0818786815481106113b057fe5b906000526020600020906006020160050154612aef90919063ffffffff16565b8685815481106113dc57fe5b906000526020600020906006020160050181905550600061142387868154811061140257fe5b90600052602060002090600602016004015483612b7790919063ffffffff16565b90506000600181111561143257fe5b8b600181111561143e57fe5b14156119165780600360003373ffffffffffffffffffffffffffffffffffffffff1673ffffffffffffffffffffffffffffffffffffffff16815260200190815260200160002060007f455448000000000000000000000000000000000000000000000000000000000081526020019081526020016000205410156114c157600080fd5b61152482600360003373ffffffffffffffffffffffffffffffffffffffff1673ffffffffffffffffffffffffffffffffffffffff16815260200190815260200160002060008d815260200190815260200160002054612aef90919063ffffffff16565b600360003373ffffffffffffffffffffffffffffffffffffffff1673ffffffffffffffffffffffffffffffffffffffff16815260200190815260200160002060008c8152602001908152602001600020819055506115fb81600360003373ffffffffffffffffffffffffffffffffffffffff1673ffffffffffffffffffffffffffffffffffffffff16815260200190815260200160002060007f4554480000000000000000000000000000000000000000000000000000000000815260200190815260200160002054612c0590919063ffffffff16565b600360003373ffffffffffffffffffffffffffffffffffffffff1673ffffffffffffffffffffffffffffffffffffffff16815260200190815260200160002060007f455448000000000000000000000000000000000000000000000000000000000081526020019081526020016000208190555061170f82600360008a898154811061168357fe5b906000526020600020906006020160010160009054906101000a900473ffffffffffffffffffffffffffffffffffffffff1673ffffffffffffffffffffffffffffffffffffffff1673ffffffffffffffffffffffffffffffffffffffff16815260200190815260200160002060008d815260200190815260200160002054612c0590919063ffffffff16565b6003600089888154811061171f57fe5b906000526020600020906006020160010160009054906101000a900473ffffffffffffffffffffffffffffffffffffffff1673ffffffffffffffffffffffffffffffffffffffff1673ffffffffffffffffffffffffffffffffffffffff16815260200190815260200160002060008c81526020019081526020016000208190555061186081600360008a89815481106117b457fe5b906000526020600020906006020160010160009054906101000a900473ffffffffffffffffffffffffffffffffffffffff1673ffffffffffffffffffffffffffffffffffffffff1673ffffffffffffffffffffffffffffffffffffffff16815260200190815260200160002060007f4554480000000000000000000000000000000000000000000000000000000000815260200190815260200160002054612aef90919063ffffffff16565b6003600089888154811061187057fe5b906000526020600020906006020160010160009054906101000a900473ffffffffffffffffffffffffffffffffffffffff1673ffffffffffffffffffffffffffffffffffffffff1673ffffffffffffffffffffffffffffffffffffffff16815260200190815260200160002060007f4554480000000000000000000000000000000000000000000000000000000000815260200190815260200160002081905550611d86565b60018081111561192257fe5b8b600181111561192e57fe5b1415611d855761199782600360003373ffffffffffffffffffffffffffffffffffffffff1673ffffffffffffffffffffffffffffffffffffffff16815260200190815260200160002060008d815260200190815260200160002054612c0590919063ffffffff16565b600360003373ffffffffffffffffffffffffffffffffffffffff1673ffffffffffffffffffffffffffffffffffffffff16815260200190815260200160002060008c815260200190815260200160002081905550611a6e81600360003373ffffffffffffffffffffffffffffffffffffffff1673ffffffffffffffffffffffffffffffffffffffff16815260200190815260200160002060007f4554480000000000000000000000000000000000000000000000000000000000815260200190815260200160002054612aef90919063ffffffff16565b600360003373ffffffffffffffffffffffffffffffffffffffff1673ffffffffffffffffffffffffffffffffffffffff16815260200190815260200160002060007f4554480000000000000000000000000000000000000000000000000000000000815260200190815260200160002081905550611b8282600360008a8981548110611af657fe5b906000526020600020906006020160010160009054906101000a900473ffffffffffffffffffffffffffffffffffffffff1673ffffffffffffffffffffffffffffffffffffffff1673ffffffffffffffffffffffffffffffffffffffff16815260200190815260200160002060008d815260200190815260200160002054612aef90919063ffffffff16565b60036000898881548110611b9257fe5b906000526020600020906006020160010160009054906101000a900473ffffffffffffffffffffffffffffffffffffffff1673ffffffffffffffffffffffffffffffffffffffff1673ffffffffffffffffffffffffffffffffffffffff16815260200190815260200160002060008c815260200190815260200160002081905550611cd381600360008a8981548110611c2757fe5b906000526020600020906006020160010160009054906101000a900473ffffffffffffffffffffffffffffffffffffffff1673ffffffffffffffffffffffffffffffffffffffff1673ffffffffffffffffffffffffffffffffffffffff16815260200190815260200160002060007f4554480000000000000000000000000000000000000000000000000000000000815260200190815260200160002054612c0590919063ffffffff16565b60036000898881548110611ce357fe5b906000526020600020906006020160010160009054906101000a900473ffffffffffffffffffffffffffffffffffffffff1673ffffffffffffffffffffffffffffffffffffffff1673ffffffffffffffffffffffffffffffffffffffff16815260200190815260200160002060007f45544800000000000000000000000000000000000000000000000000000000008152602001908152602001600020819055505b5b5050505080806001019150506112f6565b505b60008280549050118015611de8575081600081548110611db557fe5b90600052602060002090600602016003015482600081548110611dd457fe5b906000526020600020906006020160050154145b15611fa15760005b6001838054905003811015611f1557826001820181548110611e0e57fe5b9060005260206000209060060201838281548110611e2857fe5b9060005260206000209060060201600082015481600001556001820160009054906101000a900473ffffffffffffffffffffffffffffffffffffffff168160010160006101000a81548173ffffffffffffffffffffffffffffffffffffffff021916908373ffffffffffffffffffffffffffffffffffffffff1602179055506001820160149054906101000a900460ff168160010160146101000a81548160ff02191690836001811115611ed857fe5b0217905550600282015481600201556003820154816003015560048201548160040155600582015481600501559050508080600101915050611df0565b5081805480611f2057fe5b60019003818190600052602060002090600602016000808201600090556001820160006101000a81549073ffffffffffffffffffffffffffffffffffffffff02191690556001820160146101000a81549060ff0219169055600282016000905560038201600090556004820160009055600582016000905550509055611d99565b505050505050565b60018181548110611fb957600080fd5b906000526020600020016000915090505481565b80600073ffffffffffffffffffffffffffffffffffffffff166002600083815260200190815260200160002060010160009054906101000a900473ffffffffffffffffffffffffffffffffffffffff1673ffffffffffffffffffffffffffffffffffffffff1614156120a7576040517f08c379a00000000000000000000000000000000000000000000000000000000081526004018080602001828103825260158152602001807f546f6b656e20646f6573206e6f7420657869737421000000000000000000000081525060200191505060405180910390fd5b82600360003373ffffffffffffffffffffffffffffffffffffffff1673ffffffffffffffffffffffffffffffffffffffff168152602001908152602001600020600084815260200190815260200160002054101561216d576040517f08c379a00000000000000000000000000000000000000000000000000000000081526004018080602001828103825260168152602001807f42616c616e63657320696e73756666696369656e74210000000000000000000081525060200191505060405180910390fd5b6121d083600360003373ffffffffffffffffffffffffffffffffffffffff1673ffffffffffffffffffffffffffffffffffffffff168152602001908152602001600020600085815260200190815260200160002054612c0590919063ffffffff16565b600360003373ffffffffffffffffffffffffffffffffffffffff1673ffffffffffffffffffffffffffffffffffffffff1681526020019081526020016000206000848152602001908152602001600020819055506002600083815260200190815260200160002060010160009054906101000a900473ffffffffffffffffffffffffffffffffffffffff1673ffffffffffffffffffffffffffffffffffffffff1663a9059cbb33856040518363ffffffff1660e01b8152600401808373ffffffffffffffffffffffffffffffffffffffff16815260200182815260200192505050602060405180830381600087803b1580156122cb57600080fd5b505af11580156122df573d6000803e3d6000fd5b505050506040513d60208110156122f557600080fd5b810190808051906020019092919050505050505050565b606060056000848152602001908152602001600020600083600181111561232f57fe5b8152602001908152602001600020805480602002602001604051908101604052809291908181526020016000905b8282101561244457838290600052602060002090600602016040518060e0016040529081600082015481526020016001820160009054906101000a900473ffffffffffffffffffffffffffffffffffffffff1673ffffffffffffffffffffffffffffffffffffffff1673ffffffffffffffffffffffffffffffffffffffff1681526020016001820160149054906101000a900460ff1660018111156123fe57fe5b600181111561240957fe5b81526020016002820154815260200160038201548152602001600482015481526020016005820154815250508152602001906001019061235d565b50505050905092915050565b80600360003373ffffffffffffffffffffffffffffffffffffffff1673ffffffffffffffffffffffffffffffffffffffff16815260200190815260200160002060007f45544800000000000000000000000000000000000000000000000000000000008152602001908152602001600020541015612503576040517f08c379a00000000000000000000000000000000000000000000000000000000081526004016124fa90613214565b60405180910390fd5b61258681600360003373ffffffffffffffffffffffffffffffffffffffff1673ffffffffffffffffffffffffffffffffffffffff16815260200190815260200160002060007f4554480000000000000000000000000000000000000000000000000000000000815260200190815260200160002054612c0590919063ffffffff16565b600360003373ffffffffffffffffffffffffffffffffffffffff1673ffffffffffffffffffffffffffffffffffffffff16815260200190815260200160002060007f45544800000000000000000000000000000000000000000000000000000000008152602001908152602001600020819055503373ffffffffffffffffffffffffffffffffffffffff168160405161261e9061315e565b60006040518083038185875af1925050503d806000811461265b576040519150601f19603f3d011682016040523d82523d6000602084013e612660565b606091505b50505050565b80600073ffffffffffffffffffffffffffffffffffffffff166002600083815260200190815260200160002060010160009054906101000a900473ffffffffffffffffffffffffffffffffffffffff1673ffffffffffffffffffffffffffffffffffffffff161415612740576040517f08c379a00000000000000000000000000000000000000000000000000000000081526004018080602001828103825260158152602001807f546f6b656e20646f6573206e6f7420657869737421000000000000000000000081525060200191505060405180910390fd5b6002600083815260200190815260200160002060010160009054906101000a900473ffffffffffffffffffffffffffffffffffffffff1673ffffffffffffffffffffffffffffffffffffffff166323b872dd3330866040518463ffffffff1660e01b8152600401808473ffffffffffffffffffffffffffffffffffffffff1681526020018373ffffffffffffffffffffffffffffffffffffffff1681526020018281526020019350505050602060405180830381600087803b15801561280557600080fd5b505af1158015612819573d6000803e3d6000fd5b505050506040513d602081101561282f57600080fd5b8101908080519060200190929190505050506128a483600360003373ffffffffffffffffffffffffffffffffffffffff1673ffffffffffffffffffffffffffffffffffffffff168152602001908152602001600020600085815260200190815260200160002054612aef90919063ffffffff16565b600360003373ffffffffffffffffffffffffffffffffffffffff1673ffffffffffffffffffffffffffffffffffffffff168152602001908152602001600020600084815260200190815260200160002081905550505050565b612905612bfd565b73ffffffffffffffffffffffffffffffffffffffff16612923611053565b73ffffffffffffffffffffffffffffffffffffffff16146129ac576040517f08c379a00000000000000000000000000000000000000000000000000000000081526004018080602001828103825260208152602001807f4f776e61626c653a2063616c6c6572206973206e6f7420746865206f776e657281525060200191505060405180910390fd5b600073ffffffffffffffffffffffffffffffffffffffff168173ffffffffffffffffffffffffffffffffffffffff161415612a32576040517f08c379a00000000000000000000000000000000000000000000000000000000081526004018080602001828103825260268152602001806133ea6026913960400191505060405180910390fd5b8073ffffffffffffffffffffffffffffffffffffffff1660008054906101000a900473ffffffffffffffffffffffffffffffffffffffff1673ffffffffffffffffffffffffffffffffffffffff167f8be0079c531659141344cd1fd0a4f28419497f9722a3daafe3b4186f6b6457e060405160405180910390a3806000806101000a81548173ffffffffffffffffffffffffffffffffffffffff021916908373ffffffffffffffffffffffffffffffffffffffff16021790555050565b600080828401905083811015612b6d576040517f08c379a000000000000000000000000000000000000000000000000000000000815260040180806020018281038252601b8152602001807f536166654d6174683a206164646974696f6e206f766572666c6f77000000000081525060200191505060405180910390fd5b8091505092915050565b600080831415612b8a5760009050612bf7565b6000828402905082848281612b9b57fe5b0414612bf2576040517f08c379a00000000000000000000000000000000000000000000000000000000081526004018080602001828103825260218152602001806134106021913960400191505060405180910390fd5b809150505b92915050565b600033905090565b600082821115612c7d576040517f08c379a000000000000000000000000000000000000000000000000000000000815260040180806020018281038252601e8152602001807f536166654d6174683a207375627472616374696f6e206f766572666c6f77000081525060200191505060405180910390fd5b818303905092915050565b600081359050612c9781613394565b92915050565b600081359050612cac816133ab565b92915050565b600081359050612cc1816133c2565b92915050565b600081359050612cd6816133d2565b92915050565b600060208284031215612cee57600080fd5b6000612cfc84828501612c88565b91505092915050565b60008060408385031215612d1857600080fd5b6000612d2685828601612c88565b9250506020612d3785828601612c9d565b9150509250929050565b600060208284031215612d5357600080fd5b6000612d6184828501612c9d565b91505092915050565b60008060408385031215612d7d57600080fd5b6000612d8b85828601612c9d565b9250506020612d9c85828601612c88565b9150509250929050565b60008060408385031215612db957600080fd5b6000612dc785828601612c9d565b9250506020612dd885828601612cb2565b9150509250929050565b600080600060608486031215612df757600080fd5b6000612e0586828701612c9d565b9350506020612e1686828701612cc7565b9250506040612e2786828701612cc7565b9150509250925092565b600080600060608486031215612e4657600080fd5b6000612e5486828701612cb2565b9350506020612e6586828701612c9d565b9250506040612e7686828701612cc7565b9150509250925092565b60008060008060808587031215612e9657600080fd5b6000612ea487828801612cb2565b9450506020612eb587828801612c9d565b9350506040612ec687828801612cc7565b9250506060612ed787828801612cc7565b91505092959194509250565b600060208284031215612ef557600080fd5b6000612f0384828501612cc7565b91505092915050565b60008060408385031215612f1f57600080fd5b6000612f2d85828601612cc7565b9250506020612f3e85828601612c9d565b9150509250929050565b6000612f5483836130b2565b60e08301905092915050565b612f6981613313565b82525050565b612f7881613313565b82525050565b6000612f89826132ce565b612f9381856132e6565b9350612f9e836132be565b8060005b83811015612fcf578151612fb68882612f48565b9750612fc1836132d9565b925050600181019050612fa2565b5085935050505092915050565b612fe581613325565b82525050565b612ff481613325565b82525050565b6130038161336c565b82525050565b6130128161336c565b82525050565b6000613025601283613302565b91507f496e7375666669656e742062616c616e636500000000000000000000000000006000830152602082019050919050565b6000613065601483613302565b91507f496e73756666696369656e742062616c616e63650000000000000000000000006000830152602082019050919050565b60006130a56000836132f7565b9150600082019050919050565b60e0820160008201516130c86000850182613140565b5060208201516130db6020850182612f60565b5060408201516130ee6040850182612ffa565b5060608201516131016060850182612fdc565b5060808201516131146080850182613140565b5060a082015161312760a0850182613140565b5060c082015161313a60c0850182613140565b50505050565b61314981613362565b82525050565b61315881613362565b82525050565b600061316982613098565b9150819050919050565b60006020820190506131886000830184612f6f565b92915050565b600060208201905081810360008301526131a88184612f7e565b905092915050565b60006020820190506131c56000830184612feb565b92915050565b60006040820190506131e06000830185612feb565b6131ed6020830184612f6f565b9392505050565b6000602082019050818103600083015261320d81613018565b9050919050565b6000602082019050818103600083015261322d81613058565b9050919050565b6000602082019050613249600083018461314f565b92915050565b600060e082019050613264600083018a61314f565b6132716020830189612f6f565b61327e6040830188613009565b61328b6060830187612feb565b613298608083018661314f565b6132a560a083018561314f565b6132b260c083018461314f565b98975050505050505050565b6000819050602082019050919050565b600081519050919050565b6000602082019050919050565b600082825260208201905092915050565b600081905092915050565b600082825260208201905092915050565b600061331e82613342565b9050919050565b6000819050919050565b600081905061333d82613380565b919050565b600073ffffffffffffffffffffffffffffffffffffffff82169050919050565b6000819050919050565b60006133778261332f565b9050919050565bfe5b600281106133915761339061337e565b5b50565b61339d81613313565b81146133a857600080fd5b50565b6133b481613325565b81146133bf57600080fd5b50565b600281106133cf57600080fd5b50565b6133db81613362565b81146133e657600080fd5b5056fe4f776e61626c653a206e6577206f776e657220697320746865207a65726f2061646472657373536166654d6174683a206d756c7469706c69636174696f6e206f766572666c6f77a2646970667358221220bbc8b8fb942e65e8641dca215f013ad6face9a6185740fbcad76f077d1c96c1264736f6c63430007060033",
  "immutableReferences": {},
  "source": "pragma solidity >=0.6.0 <0.8.0;\r\npragma experimental ABIEncoderV2;\r\n\r\nimport \"./wallet.sol\";\r\n\r\ncontract Dex is Wallet {\r\n\r\n    using SafeMath for uint256;\r\n\r\n    enum Side {\r\n        BUY,\r\n        SELL\r\n    }\r\n\r\n    struct Order {\r\n        uint id;\r\n        address trader;\r\n        Side side;\r\n        bytes32 ticker;\r\n        uint amount;\r\n        uint price;\r\n        uint filled;\r\n    }\r\n\r\n    uint public nextOrderId = 0;\r\n\r\n    mapping(bytes32 => mapping(uint => Order[])) public orderBook;\r\n\r\n    function getOrderBook(bytes32 ticker, Side side) view public returns(Order[] memory){\r\n        return orderBook[ticker][uint(side)];\r\n    }\r\n\r\n  function depositEth() payable external {\r\n      balances[msg.sender][bytes32(\"ETH\")] = balances[msg.sender][bytes32(\"ETH\")].add(msg.value);\r\n   }\r\n\r\n   function withdrawEth(uint amount) external {\r\n       require(balances[msg.sender][bytes32(\"ETH\")] >= amount,'Insufficient balance');\r\n       balances[msg.sender][bytes32(\"ETH\")] = balances[msg.sender][bytes32(\"ETH\")].sub(amount);\r\n       msg.sender.call{value:amount}(\"\");\r\n   }\r\n\r\n\r\n    function createLimitOrder(Side side, bytes32 ticker, uint amount, uint price) public{\r\n        if(side == Side.BUY){\r\n            require(balances[msg.sender][\"ETH\"] >= amount.mul(price));\r\n        }\r\n        else if(side == Side.SELL){\r\n            require(balances[msg.sender][ticker] >= amount);\r\n        }\r\n\r\n        Order[] storage orders = orderBook[ticker][uint(side)];\r\n        orders.push(\r\n            Order(nextOrderId, msg.sender, side, ticker, amount, price, 0)\r\n        );\r\n\r\n        //Bubble sort\r\n        uint i = orders.length > 0 ? orders.length - 1 : 0;\r\n        if(side == Side.BUY){\r\n            while(i > 0){\r\n                if(orders[i - 1].price > orders[i].price) {\r\n                    break;\r\n                }\r\n                Order memory orderToMove = orders[i - 1];\r\n                orders[i - 1] = orders[i];\r\n                orders[i] = orderToMove;\r\n                i--;\r\n            }\r\n        }\r\n        else if(side == Side.SELL){\r\n            while(i > 0){\r\n                if(orders[i - 1].price < orders[i].price) {\r\n                    break;\r\n                }\r\n                Order memory orderToMove = orders[i - 1];\r\n                orders[i - 1] = orders[i];\r\n                orders[i] = orderToMove;\r\n                i--;\r\n            }\r\n        }\r\n\r\n        nextOrderId++;\r\n    }\r\n\r\n    function createMarketOrder(Side side, bytes32 ticker, uint amount) public{\r\n        if(side == Side.SELL){\r\n            require(balances[msg.sender][ticker] >= amount, \"Insuffient balance\");\r\n        }\r\n\r\n        uint orderBookSide;\r\n        if(side == Side.BUY){\r\n            orderBookSide = 1;\r\n        }\r\n        else{\r\n            orderBookSide = 0;\r\n        }\r\n        Order[] storage orders = orderBook[ticker][orderBookSide];\r\n\r\n        uint totalFilled = 0;\r\n\r\n        for (uint256 i = 0; i < orders.length && totalFilled < amount; i++) {\r\n            uint leftToFill = amount.sub(totalFilled);\r\n            uint availableToFill = orders[i].amount.sub(orders[i].filled);\r\n            uint filled = 0;\r\n            if(availableToFill > leftToFill){\r\n                filled = leftToFill; //Fill the entire market order\r\n            }\r\n            else{\r\n                filled = availableToFill; //Fill as much as is available in order[i]\r\n            }\r\n\r\n            totalFilled = totalFilled.add(filled);\r\n            orders[i].filled = orders[i].filled.add(filled);\r\n            uint cost = filled.mul(orders[i].price);\r\n\r\n            if(side == Side.BUY){\r\n                //Verify that the buyer has enough ETH to cover the purchase (require)\r\n                require(balances[msg.sender][\"ETH\"] >= cost);\r\n                //msg.sender is the buyer\r\n                balances[msg.sender][ticker] = balances[msg.sender][ticker].add(filled);\r\n                balances[msg.sender][\"ETH\"] = balances[msg.sender][\"ETH\"].sub(cost);\r\n\r\n                balances[orders[i].trader][ticker] = balances[orders[i].trader][ticker].sub(filled);\r\n                balances[orders[i].trader][\"ETH\"] = balances[orders[i].trader][\"ETH\"].add(cost);\r\n            }\r\n            else if(side == Side.SELL){\r\n                //Msg.sender is the seller\r\n                balances[msg.sender][ticker] = balances[msg.sender][ticker].sub(filled);\r\n                balances[msg.sender][\"ETH\"] = balances[msg.sender][\"ETH\"].add(cost);\r\n\r\n                balances[orders[i].trader][ticker] = balances[orders[i].trader][ticker].add(filled);\r\n                balances[orders[i].trader][\"ETH\"] = balances[orders[i].trader][\"ETH\"].sub(cost);\r\n            }\r\n\r\n        }\r\n            //Remove 100% filled orders from the orderbook\r\n        while(orders.length > 0 && orders[0].filled == orders[0].amount){\r\n            //Remove the top element in the orders array by overwriting every element\r\n            // with the next element in the order list\r\n            for (uint256 i = 0; i < orders.length - 1; i++) {\r\n                orders[i] = orders[i + 1];\r\n            }\r\n            orders.pop();\r\n        }\r\n\r\n    }\r\n\r\n}\r\n\r\n//OLD CODE\r\n/*pragma solidity >=0.6.0 <0.8.0;\r\npragma experimental ABIEncoderV2;\r\n\r\nimport \"./Wallet.sol\";\r\n\r\ncontract Dex is Wallet{\r\n\r\n  using SafeMath for uint256;\r\n\r\n    enum Side{\r\n      BUY,\r\n      SELL\r\n    }\r\n\r\n  struct Order{\r\n    uint id;\r\n    address trader;\r\n    Side side;\r\n    bytes32 ticker;\r\n    uint amount;\r\n    uint price;\r\n    uint filled;\r\n  }\r\n\r\n\r\n\r\n  uint public nextOrderId = 0;\r\n\r\n  mapping (bytes32 => mapping (uint => Order[])) public orderBook;\r\n\r\n  function getOrderBook(bytes32 ticker, Side side) view public returns(Order[] memory){\r\n      return orderBook[ticker][uint(side)];\r\n  }\r\n\r\n\r\n\r\n    function depositEth() payable external {\r\n         balances[msg.sender][bytes32(\"ETH\")] = balances[msg.sender][bytes32(\"ETH\")].add(msg.value);\r\n     }\r\n\r\n     function withdrawEth(uint amount) external {\r\n         require(balances[msg.sender][bytes32(\"ETH\")] >= amount,'Insufficient balance');\r\n         balances[msg.sender][bytes32(\"ETH\")] = balances[msg.sender][bytes32(\"ETH\")].sub(amount);\r\n         msg.sender.call{value:amount}(\"\");\r\n     }\r\n\r\n\r\n\r\n  function createLimitOrder(Side side, bytes32 ticker, uint amount, uint price) public {\r\n\r\n      if(side == Side.BUY)\r\n      {\r\n        require(balances[msg.sender][\"ETH\"] >= amount.mul(price), \"Insufficient funds to create this order!\");\r\n      }\r\n      else if(side == Side.SELL)\r\n      {\r\n        require(balances[msg.sender][ticker] >= amount, \"Insufficient token amount!\");\r\n      }\r\n\r\n      //To store orders, will have [Order1, Order2, ...] each order will be either a buy or sell order\r\n      Order[] storage orders = orderBook[ticker][uint(side)];  //side is an enum and has to be converted to uint before using in a reference for a mapping!!\r\n      //pushing the new order into the orders array, that is pointing to orderBook!!! strange, complicated but efficient\r\n      orders.push(\r\n        Order(nextOrderId, msg.sender, side, ticker, amount, price, 0)\r\n      );\r\n\r\n      //Bubble sort for BUY orderBook, GOAL: have highest price at index 0, then price declining\r\n\r\n      uint i = orders.length > 0 ? orders.length - 1 : 0;  //If orders.length is bigger 0 then i = oders.length - 1, else i = 0;  Shorted if statement!! Crazy stuff, haha, so cryptic!!\r\n\r\n        if(side == Side.BUY){\r\n            while(i > 0){\r\n                if(orders[i - 1].price > orders[i].price) {\r\n                    break;\r\n                }\r\n                Order memory orderToMove = orders[i - 1];\r\n                orders[i - 1] = orders[i];\r\n                orders[i] = orderToMove;\r\n                i--;\r\n            }\r\n        }\r\n        else if(side == Side.SELL){\r\n            while(i > 0){\r\n                if(orders[i - 1].price < orders[i].price) {\r\n                    break;\r\n                }\r\n                Order memory orderToMove = orders[i - 1];\r\n                orders[i - 1] = orders[i];\r\n                orders[i] = orderToMove;\r\n                i--;\r\n            }\r\n        }\r\n\r\n          nextOrderId++;\r\n}\r\n\r\n\r\n\r\nfunction createMarketOrder(Side side, bytes32 ticker, uint amount) public payable {\r\n  if(side == Side.SELL){\r\n    require(balances[msg.sender][ticker] >= amount, \"Insufficient funds!\");\r\n\r\n  }\r\n\r\n  uint orderBookSide;\r\n\r\n  if(side == Side.BUY){\r\n    orderBookSide = 1;\r\n  }\r\n  else if(side == Side.SELL){\r\n    orderBookSide = 0;\r\n  }\r\n  Order[] storage orders = orderBook[ticker][orderBookSide];\r\n\r\n  uint totalFilled = 0;\r\n\r\n  for (uint256 i = 0; i < orders.length && totalFilled < amount; i++){\r\n\r\n    //How much can we fill from order[i]\r\n    uint neededToFill = amount.sub(totalFilled);\r\n    uint availableToFill = orders[i].amount.sub(orders[i].filled);\r\n    uint isFilled = 0;\r\n    if(availableToFill > neededToFill){\r\n      isFilled = neededToFill; //If entire order is ready to be filled\r\n    }\r\n    else if(availableToFill <= neededToFill){\r\n      isFilled = availableToFill; //If order[i] is only partially filled\r\n    }\r\n    //Update totalFilled;\r\n    totalFilled = totalFilled.add(isFilled);\r\n    //Update order\r\n    orders[i].filled = orders[i].filled.add(isFilled);\r\n\r\n    uint cost = isFilled.mul(orders[i].price);\r\n\r\n    if(side == Side.BUY){\r\n      //Verify that buyer has enough ETH to cover buy\r\n      require(balances[msg.sender][\"ETH\"] >= cost);  //isFilled stands for how much is available to fill from previous calculation, see \"HOW MUCH CAN WE FILL\" - Code\r\n      //Execute the trade (adjust balances)\r\n      balances[msg.sender][\"ETH\"] = balances[msg.sender][\"ETH\"].sub(cost); //decrease eth balance of buyer\r\n      balances[msg.sender][ticker] = balances[msg.sender][ticker].add(isFilled); //increase Token balance of buyer\r\n\r\n      balances[orders[i].trader][\"ETH\"] = balances[orders[i].trader][\"ETH\"].add(cost);  //increase eth balance of seller\r\n      balances[orders[i].trader][ticker] = balances[orders[i].trader][ticker].sub(isFilled); //decrease token balance of seller\r\n    }\r\n    else if(side == Side.SELL){\r\n      //Execute the trade (adjust balances)\r\n      balances[msg.sender][ticker] = balances[msg.sender][ticker].sub(isFilled); //increase Token balance of buyer\r\n      balances[msg.sender][\"ETH\"] = balances[msg.sender][\"ETH\"].add(cost); //decrease eth balance of buyer\r\n\r\n      balances[orders[i].trader][ticker] = balances[orders[i].trader][ticker].add(isFilled); //decrease token balance of seller\r\n      balances[orders[i].trader][\"ETH\"] = balances[orders[i].trader][\"ETH\"].sub(cost);  //increase eth balance of seller\r\n    }\r\n  } //For loop close Bracket\r\n\r\n  //Loop through orderBook and remove 100% Filled orders\r\n  while(orders[0].filled == orders[0].amount && orders.length > 0){\r\n    //Remove the top order from order array by overwriting every element with the next element, shifting the elements in the array!\r\n    for(uint i = 0; i < orders.length - 1; i++){\r\n      orders[i] = orders[i+1];\r\n    }\r\n    orders.pop();\r\n  }\r\n\r\n} //createMarketOrder close Bracket\r\n\r\n\r\n\r\n//MY TRY ON createMarketOrder\r\n/*\r\nif(orders.length == 0){\r\n  Order memory newOrder = (nextOrderId, msg.sender, side, ticker, amount);\r\n  marketOrders.push(newOrder);\r\n}\r\nif(orders[i].ticker >= amount){\r\n\r\n  if(orders[i].amount == 0){\r\n    //delete LimitOrder\r\n  }\r\n  else {\r\n    orderBookSide = 0;\r\n    orders[i].amount = orders[i].amount.sub(amount);\r\n\r\n  }\r\n}\r\n*/\r\n\r\n\r\n/*\r\n}\r\n*/\r\n",
  "sourcePath": "C:/Users/sound/Desktop/EthProjects/DEX/contracts/Dex.sol",
  "compiler": {
    "name": "solc",
    "version": "0.7.6+commit.7338295f.Emscripten.clang"
  },
  "schemaVersion": "3.3.4",
  "updatedAt": "2021-03-26T08:40:44.287Z",
  "networkType": "ethereum",
  "devdoc": {
    "kind": "dev",
    "methods": {
      "owner()": {
        "details": "Returns the address of the current owner."
      },
      "renounceOwnership()": {
        "details": "Leaves the contract without owner. It will not be possible to call `onlyOwner` functions anymore. Can only be called by the current owner. NOTE: Renouncing ownership will leave the contract without an owner, thereby removing any functionality that is only available to the owner."
      },
      "transferOwnership(address)": {
        "details": "Transfers ownership of the contract to a new account (`newOwner`). Can only be called by the current owner."
      }
    },
    "version": 1
  },
  "userdoc": {
    "kind": "user",
    "methods": {},
    "version": 1
  }
}