{
  "contractName": "Dex",
  "abi": [
    {
      "anonymous": false,
      "inputs": [
        {
          "indexed": true,
          "internalType": "address",
          "name": "previousOwner",
          "type": "address"
        },
        {
          "indexed": true,
          "internalType": "address",
          "name": "newOwner",
          "type": "address"
        }
      ],
      "name": "OwnershipTransferred",
      "type": "event"
    },
    {
      "inputs": [
        {
          "internalType": "bytes32",
          "name": "ticker",
          "type": "bytes32"
        },
        {
          "internalType": "address",
          "name": "tokenAddress",
          "type": "address"
        }
      ],
      "name": "addToken",
      "outputs": [],
      "stateMutability": "nonpayable",
      "type": "function"
    },
    {
      "inputs": [
        {
          "internalType": "address",
          "name": "",
          "type": "address"
        },
        {
          "internalType": "bytes32",
          "name": "",
          "type": "bytes32"
        }
      ],
      "name": "balances",
      "outputs": [
        {
          "internalType": "uint256",
          "name": "",
          "type": "uint256"
        }
      ],
      "stateMutability": "view",
      "type": "function",
      "constant": true
    },
    {
      "inputs": [
        {
          "internalType": "uint256",
          "name": "amount",
          "type": "uint256"
        },
        {
          "internalType": "bytes32",
          "name": "ticker",
          "type": "bytes32"
        }
      ],
      "name": "deposit",
      "outputs": [],
      "stateMutability": "nonpayable",
      "type": "function"
    },
    {
      "inputs": [],
      "name": "nextOrderId",
      "outputs": [
        {
          "internalType": "uint256",
          "name": "",
          "type": "uint256"
        }
      ],
      "stateMutability": "view",
      "type": "function",
      "constant": true
    },
    {
      "inputs": [
        {
          "internalType": "bytes32",
          "name": "",
          "type": "bytes32"
        },
        {
          "internalType": "uint256",
          "name": "",
          "type": "uint256"
        },
        {
          "internalType": "uint256",
          "name": "",
          "type": "uint256"
        }
      ],
      "name": "orderBook",
      "outputs": [
        {
          "internalType": "uint256",
          "name": "id",
          "type": "uint256"
        },
        {
          "internalType": "address",
          "name": "trader",
          "type": "address"
        },
        {
          "internalType": "enum Dex.Side",
          "name": "side",
          "type": "uint8"
        },
        {
          "internalType": "bytes32",
          "name": "ticker",
          "type": "bytes32"
        },
        {
          "internalType": "uint256",
          "name": "amount",
          "type": "uint256"
        },
        {
          "internalType": "uint256",
          "name": "price",
          "type": "uint256"
        }
      ],
      "stateMutability": "view",
      "type": "function",
      "constant": true
    },
    {
      "inputs": [],
      "name": "owner",
      "outputs": [
        {
          "internalType": "address",
          "name": "",
          "type": "address"
        }
      ],
      "stateMutability": "view",
      "type": "function",
      "constant": true
    },
    {
      "inputs": [],
      "name": "renounceOwnership",
      "outputs": [],
      "stateMutability": "nonpayable",
      "type": "function"
    },
    {
      "inputs": [
        {
          "internalType": "uint256",
          "name": "",
          "type": "uint256"
        }
      ],
      "name": "tokenList",
      "outputs": [
        {
          "internalType": "bytes32",
          "name": "",
          "type": "bytes32"
        }
      ],
      "stateMutability": "view",
      "type": "function",
      "constant": true
    },
    {
      "inputs": [
        {
          "internalType": "bytes32",
          "name": "",
          "type": "bytes32"
        }
      ],
      "name": "tokenMapping",
      "outputs": [
        {
          "internalType": "bytes32",
          "name": "ticker",
          "type": "bytes32"
        },
        {
          "internalType": "address",
          "name": "tokenAddress",
          "type": "address"
        }
      ],
      "stateMutability": "view",
      "type": "function",
      "constant": true
    },
    {
      "inputs": [
        {
          "internalType": "address",
          "name": "newOwner",
          "type": "address"
        }
      ],
      "name": "transferOwnership",
      "outputs": [],
      "stateMutability": "nonpayable",
      "type": "function"
    },
    {
      "inputs": [
        {
          "internalType": "uint256",
          "name": "amount",
          "type": "uint256"
        },
        {
          "internalType": "bytes32",
          "name": "ticker",
          "type": "bytes32"
        }
      ],
      "name": "withdraw",
      "outputs": [],
      "stateMutability": "nonpayable",
      "type": "function"
    },
    {
      "inputs": [
        {
          "internalType": "bytes32",
          "name": "ticker",
          "type": "bytes32"
        },
        {
          "internalType": "enum Dex.Side",
          "name": "side",
          "type": "uint8"
        }
      ],
      "name": "getOrderBook",
      "outputs": [
        {
          "components": [
            {
              "internalType": "uint256",
              "name": "id",
              "type": "uint256"
            },
            {
              "internalType": "address",
              "name": "trader",
              "type": "address"
            },
            {
              "internalType": "enum Dex.Side",
              "name": "side",
              "type": "uint8"
            },
            {
              "internalType": "bytes32",
              "name": "ticker",
              "type": "bytes32"
            },
            {
              "internalType": "uint256",
              "name": "amount",
              "type": "uint256"
            },
            {
              "internalType": "uint256",
              "name": "price",
              "type": "uint256"
            }
          ],
          "internalType": "struct Dex.Order[]",
          "name": "",
          "type": "tuple[]"
        }
      ],
      "stateMutability": "view",
      "type": "function",
      "constant": true
    },
    {
      "inputs": [
        {
          "internalType": "enum Dex.Side",
          "name": "side",
          "type": "uint8"
        },
        {
          "internalType": "bytes32",
          "name": "ticker",
          "type": "bytes32"
        },
        {
          "internalType": "uint256",
          "name": "amount",
          "type": "uint256"
        },
        {
          "internalType": "uint256",
          "name": "price",
          "type": "uint256"
        }
      ],
      "name": "createLimitOrder",
      "outputs": [],
      "stateMutability": "nonpayable",
      "type": "function"
    },
    {
      "inputs": [],
      "name": "depositEth",
      "outputs": [],
      "stateMutability": "payable",
      "type": "function",
      "payable": true
    },
    {
      "inputs": [
        {
          "internalType": "uint256",
          "name": "amount",
          "type": "uint256"
        }
      ],
      "name": "withdrawEth",
      "outputs": [],
      "stateMutability": "nonpayable",
      "type": "function"
    }
  ],
  "bytecode": "0x6080604052600060045534801561001557600080fd5b5060006100266100c960201b60201c565b9050806000806101000a81548173ffffffffffffffffffffffffffffffffffffffff021916908373ffffffffffffffffffffffffffffffffffffffff1602179055508073ffffffffffffffffffffffffffffffffffffffff16600073ffffffffffffffffffffffffffffffffffffffff167f8be0079c531659141344cd1fd0a4f28419497f9722a3daafe3b4186f6b6457e060405160405180910390a3506100d1565b600033905090565b612697806100e06000396000f3fe6080604052600436106100e85760003560e01c80638da5cb5b1161008a578063ba58ea6811610059578063ba58ea68146102d9578063c311d04914610316578063c9630cb01461033f578063f2fde38b14610368576100e8565b80638da5cb5b1461021f5780639776aacf1461024a5780639ead722214610273578063a8d2021a146102b0576100e8565b8063439370b1116100c6578063439370b114610197578063667cb4ba146101a15780636f3b62f9146101df578063715018a614610208576100e8565b80630bb431b6146100ed5780631f14df691461012f5780632a58b3301461016c575b600080fd5b3480156100f957600080fd5b50610114600480360381019061010f9190611ffd565b610391565b6040516101269695949392919061248e565b60405180910390f35b34801561013b57600080fd5b5061015660048036038101906101519190611f20565b610424565b6040516101639190612473565b60405180910390f35b34801561017857600080fd5b50610181610449565b60405161018e9190612473565b60405180910390f35b61019f61044f565b005b3480156101ad57600080fd5b506101c860048036038101906101c39190611f5c565b610548565b6040516101d69291906123ea565b60405180910390f35b3480156101eb57600080fd5b506102066004803603810190610201919061204c565b61058c565b005b34801561021457600080fd5b5061021d610eca565b005b34801561022b57600080fd5b50610234611037565b6040516102419190612392565b60405180910390f35b34801561025657600080fd5b50610271600480360381019061026c9190611f85565b611060565b005b34801561027f57600080fd5b5061029a600480360381019061029591906120af565b6111ce565b6040516102a791906123cf565b60405180910390f35b3480156102bc57600080fd5b506102d760048036038101906102d291906120d8565b6111f2565b005b3480156102e557600080fd5b5061030060048036038101906102fb9190611fc1565b611531565b60405161030d91906123ad565b60405180910390f35b34801561032257600080fd5b5061033d600480360381019061033891906120af565b61166b565b005b34801561034b57600080fd5b50610366600480360381019061036191906120d8565b611881565b005b34801561037457600080fd5b5061038f600480360381019061038a9190611ef7565b611b18565b005b600560205282600052604060002060205281600052604060002081815481106103b957600080fd5b906000526020600020906005020160009250925050508060000154908060010160009054906101000a900473ffffffffffffffffffffffffffffffffffffffff16908060010160149054906101000a900460ff16908060020154908060030154908060040154905086565b6003602052816000526040600020602052806000526040600020600091509150505481565b60045481565b6104d234600360003373ffffffffffffffffffffffffffffffffffffffff1673ffffffffffffffffffffffffffffffffffffffff16815260200190815260200160002060007f4554480000000000000000000000000000000000000000000000000000000000815260200190815260200160002054611d0a90919063ffffffff16565b600360003373ffffffffffffffffffffffffffffffffffffffff1673ffffffffffffffffffffffffffffffffffffffff16815260200190815260200160002060007f4554480000000000000000000000000000000000000000000000000000000000815260200190815260200160002081905550565b60026020528060005260406000206000915090508060000154908060010160009054906101000a900473ffffffffffffffffffffffffffffffffffffffff16905082565b6000600181111561059957fe5b8460018111156105a557fe5b1415610675576105be8183611d9290919063ffffffff16565b600360003373ffffffffffffffffffffffffffffffffffffffff1673ffffffffffffffffffffffffffffffffffffffff16815260200190815260200160002060007f45544800000000000000000000000000000000000000000000000000000000008152602001908152602001600020541015610670576040517f08c379a000000000000000000000000000000000000000000000000000000000815260040161066790612433565b60405180910390fd5b610728565b60018081111561068157fe5b84600181111561068d57fe5b14156107275781600360003373ffffffffffffffffffffffffffffffffffffffff1673ffffffffffffffffffffffffffffffffffffffff1681526020019081526020016000206000858152602001908152602001600020541015610726576040517f08c379a000000000000000000000000000000000000000000000000000000000815260040161071d90612453565b60405180910390fd5b5b5b600060056000858152602001908152602001600020600086600181111561074b57fe5b81526020019081526020016000209050806040518060c0016040528060045481526020013373ffffffffffffffffffffffffffffffffffffffff16815260200187600181111561079757fe5b81526020018681526020018581526020018481525090806001815401808255809150506001900390600052602060002090600502016000909190919091506000820151816000015560208201518160010160006101000a81548173ffffffffffffffffffffffffffffffffffffffff021916908373ffffffffffffffffffffffffffffffffffffffff16021790555060408201518160010160146101000a81548160ff0219169083600181111561084a57fe5b0217905550606082015181600201556080820151816003015560a08201518160040155505060008082805490501161088357600061088c565b60018280549050035b90506000600181111561089b57fe5b8660018111156108a757fe5b1415610ba1575b6000811115610b9c578181815481106108c357fe5b9060005260206000209060050201600401548260018303815481106108e457fe5b906000526020600020906005020160040154111561090157610b9c565b600082600183038154811061091257fe5b90600052602060002090600502016040518060c0016040529081600082015481526020016001820160009054906101000a900473ffffffffffffffffffffffffffffffffffffffff1673ffffffffffffffffffffffffffffffffffffffff1673ffffffffffffffffffffffffffffffffffffffff1681526020016001820160149054906101000a900460ff1660018111156109a957fe5b60018111156109b457fe5b8152602001600282015481526020016003820154815260200160048201548152505090508282815481106109e457fe5b9060005260206000209060050201836001840381548110610a0157fe5b9060005260206000209060050201600082015481600001556001820160009054906101000a900473ffffffffffffffffffffffffffffffffffffffff168160010160006101000a81548173ffffffffffffffffffffffffffffffffffffffff021916908373ffffffffffffffffffffffffffffffffffffffff1602179055506001820160149054906101000a900460ff168160010160146101000a81548160ff02191690836001811115610ab157fe5b021790555060028201548160020155600382015481600301556004820154816004015590505080838381548110610ae457fe5b90600052602060002090600502016000820151816000015560208201518160010160006101000a81548173ffffffffffffffffffffffffffffffffffffffff021916908373ffffffffffffffffffffffffffffffffffffffff16021790555060408201518160010160146101000a81548160ff02191690836001811115610b6757fe5b0217905550606082015181600201556080820151816003015560a08201518160040155905050818060019003925050506108ae565b610eb0565b600180811115610bad57fe5b866001811115610bb957fe5b1415610eaf575b6000811115610eae57818181548110610bd557fe5b906000526020600020906005020160040154826001830381548110610bf657fe5b9060005260206000209060050201600401541015610c1357610eae565b6000826001830381548110610c2457fe5b90600052602060002090600502016040518060c0016040529081600082015481526020016001820160009054906101000a900473ffffffffffffffffffffffffffffffffffffffff1673ffffffffffffffffffffffffffffffffffffffff1673ffffffffffffffffffffffffffffffffffffffff1681526020016001820160149054906101000a900460ff166001811115610cbb57fe5b6001811115610cc657fe5b815260200160028201548152602001600382015481526020016004820154815250509050828281548110610cf657fe5b9060005260206000209060050201836001840381548110610d1357fe5b9060005260206000209060050201600082015481600001556001820160009054906101000a900473ffffffffffffffffffffffffffffffffffffffff168160010160006101000a81548173ffffffffffffffffffffffffffffffffffffffff021916908373ffffffffffffffffffffffffffffffffffffffff1602179055506001820160149054906101000a900460ff168160010160146101000a81548160ff02191690836001811115610dc357fe5b021790555060028201548160020155600382015481600301556004820154816004015590505080838381548110610df657fe5b90600052602060002090600502016000820151816000015560208201518160010160006101000a81548173ffffffffffffffffffffffffffffffffffffffff021916908373ffffffffffffffffffffffffffffffffffffffff16021790555060408201518160010160146101000a81548160ff02191690836001811115610e7957fe5b0217905550606082015181600201556080820151816003015560a0820151816004015590505081806001900392505050610bc0565b5b5b600460008154809291906001019190505550505050505050565b610ed2611e18565b73ffffffffffffffffffffffffffffffffffffffff16610ef0611037565b73ffffffffffffffffffffffffffffffffffffffff1614610f79576040517f08c379a00000000000000000000000000000000000000000000000000000000081526004018080602001828103825260208152602001807f4f776e61626c653a2063616c6c6572206973206e6f7420746865206f776e657281525060200191505060405180910390fd5b600073ffffffffffffffffffffffffffffffffffffffff1660008054906101000a900473ffffffffffffffffffffffffffffffffffffffff1673ffffffffffffffffffffffffffffffffffffffff167f8be0079c531659141344cd1fd0a4f28419497f9722a3daafe3b4186f6b6457e060405160405180910390a360008060006101000a81548173ffffffffffffffffffffffffffffffffffffffff021916908373ffffffffffffffffffffffffffffffffffffffff160217905550565b60008060009054906101000a900473ffffffffffffffffffffffffffffffffffffffff16905090565b611068611e18565b73ffffffffffffffffffffffffffffffffffffffff16611086611037565b73ffffffffffffffffffffffffffffffffffffffff161461110f576040517f08c379a00000000000000000000000000000000000000000000000000000000081526004018080602001828103825260208152602001807f4f776e61626c653a2063616c6c6572206973206e6f7420746865206f776e657281525060200191505060405180910390fd5b60405180604001604052808381526020018273ffffffffffffffffffffffffffffffffffffffff16815250600260008481526020019081526020016000206000820151816000015560208201518160010160006101000a81548173ffffffffffffffffffffffffffffffffffffffff021916908373ffffffffffffffffffffffffffffffffffffffff16021790555090505060018290806001815401808255809150506001900390600052602060002001600090919091909150555050565b600181815481106111de57600080fd5b906000526020600020016000915090505481565b80600073ffffffffffffffffffffffffffffffffffffffff166002600083815260200190815260200160002060010160009054906101000a900473ffffffffffffffffffffffffffffffffffffffff1673ffffffffffffffffffffffffffffffffffffffff1614156112cc576040517f08c379a00000000000000000000000000000000000000000000000000000000081526004018080602001828103825260158152602001807f546f6b656e20646f6573206e6f7420657869737421000000000000000000000081525060200191505060405180910390fd5b82600360003373ffffffffffffffffffffffffffffffffffffffff1673ffffffffffffffffffffffffffffffffffffffff1681526020019081526020016000206000848152602001908152602001600020541015611392576040517f08c379a00000000000000000000000000000000000000000000000000000000081526004018080602001828103825260168152602001807f42616c616e63657320696e73756666696369656e74210000000000000000000081525060200191505060405180910390fd5b6113f583600360003373ffffffffffffffffffffffffffffffffffffffff1673ffffffffffffffffffffffffffffffffffffffff168152602001908152602001600020600085815260200190815260200160002054611e2090919063ffffffff16565b600360003373ffffffffffffffffffffffffffffffffffffffff1673ffffffffffffffffffffffffffffffffffffffff1681526020019081526020016000206000848152602001908152602001600020819055506002600083815260200190815260200160002060010160009054906101000a900473ffffffffffffffffffffffffffffffffffffffff1673ffffffffffffffffffffffffffffffffffffffff1663a9059cbb33856040518363ffffffff1660e01b8152600401808373ffffffffffffffffffffffffffffffffffffffff16815260200182815260200192505050602060405180830381600087803b1580156114f057600080fd5b505af1158015611504573d6000803e3d6000fd5b505050506040513d602081101561151a57600080fd5b810190808051906020019092919050505050505050565b606060056000848152602001908152602001600020600083600181111561155457fe5b8152602001908152602001600020805480602002602001604051908101604052809291908181526020016000905b8282101561165f57838290600052602060002090600502016040518060c0016040529081600082015481526020016001820160009054906101000a900473ffffffffffffffffffffffffffffffffffffffff1673ffffffffffffffffffffffffffffffffffffffff1673ffffffffffffffffffffffffffffffffffffffff1681526020016001820160149054906101000a900460ff16600181111561162357fe5b600181111561162e57fe5b8152602001600282015481526020016003820154815260200160048201548152505081526020019060010190611582565b50505050905092915050565b80600360003373ffffffffffffffffffffffffffffffffffffffff1673ffffffffffffffffffffffffffffffffffffffff16815260200190815260200160002060007f4554480000000000000000000000000000000000000000000000000000000000815260200190815260200160002054101561171e576040517f08c379a000000000000000000000000000000000000000000000000000000000815260040161171590612413565b60405180910390fd5b6117a181600360003373ffffffffffffffffffffffffffffffffffffffff1673ffffffffffffffffffffffffffffffffffffffff16815260200190815260200160002060007f4554480000000000000000000000000000000000000000000000000000000000815260200190815260200160002054611e2090919063ffffffff16565b600360003373ffffffffffffffffffffffffffffffffffffffff1673ffffffffffffffffffffffffffffffffffffffff16815260200190815260200160002060007f45544800000000000000000000000000000000000000000000000000000000008152602001908152602001600020819055503373ffffffffffffffffffffffffffffffffffffffff16816040516118399061237d565b60006040518083038185875af1925050503d8060008114611876576040519150601f19603f3d011682016040523d82523d6000602084013e61187b565b606091505b50505050565b80600073ffffffffffffffffffffffffffffffffffffffff166002600083815260200190815260200160002060010160009054906101000a900473ffffffffffffffffffffffffffffffffffffffff1673ffffffffffffffffffffffffffffffffffffffff16141561195b576040517f08c379a00000000000000000000000000000000000000000000000000000000081526004018080602001828103825260158152602001807f546f6b656e20646f6573206e6f7420657869737421000000000000000000000081525060200191505060405180910390fd5b6002600083815260200190815260200160002060010160009054906101000a900473ffffffffffffffffffffffffffffffffffffffff1673ffffffffffffffffffffffffffffffffffffffff166323b872dd3330866040518463ffffffff1660e01b8152600401808473ffffffffffffffffffffffffffffffffffffffff1681526020018373ffffffffffffffffffffffffffffffffffffffff1681526020018281526020019350505050602060405180830381600087803b158015611a2057600080fd5b505af1158015611a34573d6000803e3d6000fd5b505050506040513d6020811015611a4a57600080fd5b810190808051906020019092919050505050611abf83600360003373ffffffffffffffffffffffffffffffffffffffff1673ffffffffffffffffffffffffffffffffffffffff168152602001908152602001600020600085815260200190815260200160002054611d0a90919063ffffffff16565b600360003373ffffffffffffffffffffffffffffffffffffffff1673ffffffffffffffffffffffffffffffffffffffff168152602001908152602001600020600084815260200190815260200160002081905550505050565b611b20611e18565b73ffffffffffffffffffffffffffffffffffffffff16611b3e611037565b73ffffffffffffffffffffffffffffffffffffffff1614611bc7576040517f08c379a00000000000000000000000000000000000000000000000000000000081526004018080602001828103825260208152602001807f4f776e61626c653a2063616c6c6572206973206e6f7420746865206f776e657281525060200191505060405180910390fd5b600073ffffffffffffffffffffffffffffffffffffffff168173ffffffffffffffffffffffffffffffffffffffff161415611c4d576040517f08c379a000000000000000000000000000000000000000000000000000000000815260040180806020018281038252602681526020018061261b6026913960400191505060405180910390fd5b8073ffffffffffffffffffffffffffffffffffffffff1660008054906101000a900473ffffffffffffffffffffffffffffffffffffffff1673ffffffffffffffffffffffffffffffffffffffff167f8be0079c531659141344cd1fd0a4f28419497f9722a3daafe3b4186f6b6457e060405160405180910390a3806000806101000a81548173ffffffffffffffffffffffffffffffffffffffff021916908373ffffffffffffffffffffffffffffffffffffffff16021790555050565b600080828401905083811015611d88576040517f08c379a000000000000000000000000000000000000000000000000000000000815260040180806020018281038252601b8152602001807f536166654d6174683a206164646974696f6e206f766572666c6f77000000000081525060200191505060405180910390fd5b8091505092915050565b600080831415611da55760009050611e12565b6000828402905082848281611db657fe5b0414611e0d576040517f08c379a00000000000000000000000000000000000000000000000000000000081526004018080602001828103825260218152602001806126416021913960400191505060405180910390fd5b809150505b92915050565b600033905090565b600082821115611e98576040517f08c379a000000000000000000000000000000000000000000000000000000000815260040180806020018281038252601e8152602001807f536166654d6174683a207375627472616374696f6e206f766572666c6f77000081525060200191505060405180910390fd5b818303905092915050565b600081359050611eb2816125c5565b92915050565b600081359050611ec7816125dc565b92915050565b600081359050611edc816125f3565b92915050565b600081359050611ef181612603565b92915050565b600060208284031215611f0957600080fd5b6000611f1784828501611ea3565b91505092915050565b60008060408385031215611f3357600080fd5b6000611f4185828601611ea3565b9250506020611f5285828601611eb8565b9150509250929050565b600060208284031215611f6e57600080fd5b6000611f7c84828501611eb8565b91505092915050565b60008060408385031215611f9857600080fd5b6000611fa685828601611eb8565b9250506020611fb785828601611ea3565b9150509250929050565b60008060408385031215611fd457600080fd5b6000611fe285828601611eb8565b9250506020611ff385828601611ecd565b9150509250929050565b60008060006060848603121561201257600080fd5b600061202086828701611eb8565b935050602061203186828701611ee2565b925050604061204286828701611ee2565b9150509250925092565b6000806000806080858703121561206257600080fd5b600061207087828801611ecd565b945050602061208187828801611eb8565b935050604061209287828801611ee2565b92505060606120a387828801611ee2565b91505092959194509250565b6000602082840312156120c157600080fd5b60006120cf84828501611ee2565b91505092915050565b600080604083850312156120eb57600080fd5b60006120f985828601611ee2565b925050602061210a85828601611eb8565b9150509250929050565b600061212083836122e4565b60c08301905092915050565b61213581612544565b82525050565b61214481612544565b82525050565b6000612155826124ff565b61215f8185612517565b935061216a836124ef565b8060005b8381101561219b5781516121828882612114565b975061218d8361250a565b92505060018101905061216e565b5085935050505092915050565b6121b181612556565b82525050565b6121c081612556565b82525050565b6121cf8161259d565b82525050565b6121de8161259d565b82525050565b60006121f1601283612533565b91507f496e7375666669656e742062616c616e636500000000000000000000000000006000830152602082019050919050565b6000612231600083612528565b9150600082019050919050565b600061224b602883612533565b91507f496e73756666696369656e742066756e647320746f206372656174652074686960008301527f73206f72646572210000000000000000000000000000000000000000000000006020830152604082019050919050565b60006122b1601a83612533565b91507f496e73756666696369656e7420746f6b656e20616d6f756e74210000000000006000830152602082019050919050565b60c0820160008201516122fa600085018261235f565b50602082015161230d602085018261212c565b50604082015161232060408501826121c6565b50606082015161233360608501826121a8565b506080820151612346608085018261235f565b5060a082015161235960a085018261235f565b50505050565b61236881612593565b82525050565b61237781612593565b82525050565b600061238882612224565b9150819050919050565b60006020820190506123a7600083018461213b565b92915050565b600060208201905081810360008301526123c7818461214a565b905092915050565b60006020820190506123e460008301846121b7565b92915050565b60006040820190506123ff60008301856121b7565b61240c602083018461213b565b9392505050565b6000602082019050818103600083015261242c816121e4565b9050919050565b6000602082019050818103600083015261244c8161223e565b9050919050565b6000602082019050818103600083015261246c816122a4565b9050919050565b6000602082019050612488600083018461236e565b92915050565b600060c0820190506124a3600083018961236e565b6124b0602083018861213b565b6124bd60408301876121d5565b6124ca60608301866121b7565b6124d7608083018561236e565b6124e460a083018461236e565b979650505050505050565b6000819050602082019050919050565b600081519050919050565b6000602082019050919050565b600082825260208201905092915050565b600081905092915050565b600082825260208201905092915050565b600061254f82612573565b9050919050565b6000819050919050565b600081905061256e826125b1565b919050565b600073ffffffffffffffffffffffffffffffffffffffff82169050919050565b6000819050919050565b60006125a882612560565b9050919050565bfe5b600281106125c2576125c16125af565b5b50565b6125ce81612544565b81146125d957600080fd5b50565b6125e581612556565b81146125f057600080fd5b50565b6002811061260057600080fd5b50565b61260c81612593565b811461261757600080fd5b5056fe4f776e61626c653a206e6577206f776e657220697320746865207a65726f2061646472657373536166654d6174683a206d756c7469706c69636174696f6e206f766572666c6f77a2646970667358221220977c52b7d4281cfac0a700838972386058916d64c524e233dd79eb3aaba9ad4664736f6c63430007060033",
  "immutableReferences": {},
  "source": "pragma solidity >=0.6.0 <0.8.0;\r\npragma experimental ABIEncoderV2;\r\n\r\nimport \"./Wallet.sol\";\r\n\r\ncontract Dex is Wallet{\r\n\r\n  using SafeMath for uint256;\r\n\r\n    enum Side{\r\n      BUY,\r\n      SELL\r\n    }\r\n\r\n  struct Order{\r\n    uint id;\r\n    address trader;\r\n    Side side;\r\n    bytes32 ticker;\r\n    uint amount;\r\n    uint price;\r\n  }\r\n\r\n  uint public nextOrderId = 0;\r\n\r\n  mapping (bytes32 => mapping (uint => Order[])) public orderBook;\r\n\r\n  function getOrderBook(bytes32 ticker, Side side) view public returns(Order[] memory){\r\n      return orderBook[ticker][uint(side)];\r\n  }\r\n\r\n\r\n  function createLimitOrder(Side side, bytes32 ticker, uint amount, uint price) public {\r\n\r\n      if(side == Side.BUY)\r\n      {\r\n        require(balances[msg.sender][\"ETH\"] >= amount.mul(price), \"Insufficient funds to create this order!\");\r\n      }\r\n      else if(side == Side.SELL)\r\n      {\r\n        require(balances[msg.sender][ticker] >= amount, \"Insufficient token amount!\");\r\n      }\r\n\r\n      //To store orders, will have [Order1, Order2, ...] each order will be either a buy or sell order\r\n      Order[] storage orders = orderBook[ticker][uint(side)];  //side is an enum and has to be converted to uint before using in a reference for a mapping!!\r\n      //pushing the new order into the orders array, that is pointing to orderBook!!! strange, complicated but efficient\r\n      orders.push(\r\n        Order(nextOrderId, msg.sender, side, ticker, amount, price)\r\n      );\r\n\r\n      //Bubble sort for BUY orderBook, GOAL: have highest price at index 0, then price declining\r\n\r\n      uint i = orders.length > 0 ? orders.length - 1 : 0;  //If orders.length is bigger 0 then i = oders.length - 1, else i = 0;  Shorted if statement!! Crazy stuff, haha, so cryptic!!\r\n\r\n      if(side == Side.BUY){\r\n        while (i > 0){\r\n              if(orders[i - 1].price > orders[i].price){\r\n                break;\r\n              }\r\n              Order memory swapOrder = orders[i - 1];\r\n              orders[i - 1] = orders[i];\r\n              orders[i] = swapOrder;\r\n              i--;\r\n            }\r\n          }\r\n\r\n          //Bubble Sort for SELL orderBook, GOAL: lowest price at index 9 then price increasing\r\n          else if(side == Side.SELL){\r\n            while (i > 0){\r\n              if (orders[i - 1].price < orders[i].price){\r\n                break;\r\n              }\r\n              Order memory swapOrder = orders[i - 1];\r\n              orders[i - 1] = orders[i];\r\n              orders[i] = swapOrder;\r\n              i--;\r\n            }\r\n          }\r\n          nextOrderId++;\r\n}\r\n\r\n\r\n\r\n\r\n\r\n\r\n\r\n  function depositEth() payable external {\r\n       balances[msg.sender][bytes32(\"ETH\")] = balances[msg.sender][bytes32(\"ETH\")].add(msg.value);\r\n   }\r\n\r\n   function withdrawEth(uint amount) external {\r\n       require(balances[msg.sender][bytes32(\"ETH\")] >= amount,'Insuffient balance');\r\n       balances[msg.sender][bytes32(\"ETH\")] = balances[msg.sender][bytes32(\"ETH\")].sub(amount);\r\n       msg.sender.call{value:amount}(\"\");\r\n   }\r\n\r\n\r\n}\r\n",
  "sourcePath": "C:/Users/sound/Desktop/EthProjects/DEX/contracts/Dex.sol",
  "compiler": {
    "name": "solc",
    "version": "0.7.6+commit.7338295f.Emscripten.clang"
  },
  "schemaVersion": "3.3.4",
  "updatedAt": "2021-03-13T10:46:23.455Z",
  "networkType": "ethereum",
  "devdoc": {
    "kind": "dev",
    "methods": {
      "owner()": {
        "details": "Returns the address of the current owner."
      },
      "renounceOwnership()": {
        "details": "Leaves the contract without owner. It will not be possible to call `onlyOwner` functions anymore. Can only be called by the current owner. NOTE: Renouncing ownership will leave the contract without an owner, thereby removing any functionality that is only available to the owner."
      },
      "transferOwnership(address)": {
        "details": "Transfers ownership of the contract to a new account (`newOwner`). Can only be called by the current owner."
      }
    },
    "version": 1
  },
  "userdoc": {
    "kind": "user",
    "methods": {},
    "version": 1
  }
}